:020000040800F2
:100000001040002021350008A1330008A333000868
:10001000A5330008A7330008A9330008000000003A
:10002000000000000000000000000000AB330008EA
:10003000AD33000800000000AF330008B133000802
:1000400055350008593500085D3500086135000850
:1000500065350008693500086D3500087135000800
:1000600075350008793500087D35000881350008B0
:10007000B533000885350008893500088D3500083E
:10008000BB33000891350008953500089935000804
:100090009D350008A1350008A5350008A9350008E0
:1000A000AD350008B1350008B5350008B935000890
:1000B000BD350008C1350008C5350008C935000840
:1000C000CD350008D1350008D5350008D9350008F0
:1000D000DD350008E1350008E5350008E9350008A0
:1000E000ED350008F1350008F5350008F935000850
:1000F000FD350008013600080536000809360008FD
:100100000D360008113600081536000819360008AB
:100110001D36000821360008C1330008D13300081D
:1001200025360008293600082D360008313600082B
:1001300035360008393600083D36000841360008DB
:1001400045360008493600084D360008513600088B
:1001500055360008593600085D360008613600083B
:1001600065360008693600086D36000871360008EB
:1001700075360008793600087D360008000000005A
:100180008136000885360008893600088D3600085B
:100190009136000895360008993600089D3600080B
:1001A000A1360008A5360008A9360008AD360008BB
:1001B000B1360008B5360008B9360008BD3600086B
:1001C000C1360008C536000800000000C936000826
:1001D000CD360008D1360008D5360008D9360008DB
:1001E000DD360008E1360008E5360008E93600088B
:1001F000ED360008F136000838B5040001D10120C1
:1002000032BD00F038F818B92870204600F068FCBC
:1002100013E00068DFF8B020C16841F00101C1605F
:1002200081681140062918BFB1F5803F03D00168ED
:1002300041F001010160002070470220211D68701B
:10024000206800F0E8F901206870002032BD03D07A
:10025000016841F001010160002010BD38B50400C3
:1002600001D1012032BD00F006F818B928702046EF
:1002700000F0B0FCE1E704F13C056878704710B588
:1002800000F00CF800F01AF81CBFDFF840108842AC
:1002900000F009F818BFB1F5803FD8E70446012205
:1002A000206800F052BB03D1416C41F4004141642D
:1002B0008168DFF814201140062970472068DFF8B4
:1002C0001010884270470000070001000004014040
:1002D0000000014010B5044620680169890715D562
:1002E000C168890712D56FF00201016101212177F0
:1002F000806910F0030F204602D000F06CFC03E090
:1003000000F06AFC00F094F8002020772068016972
:10031000490715D5C168490712D56FF0040101617D
:1003200002212177806910F4407F204602D000F03E
:1003300052FC03E000F050FC00F07AF80020207737
:1003400020680169090715D5C168090712D56FF042
:100350000801016104212177C06910F0030F2046D4
:1003600002D000F038FC03E000F036FC00F060F84A
:100370000020207720680169C90615D5C168C90623
:1003800012D56FF01001016108212177C06910F4C6
:10039000407F204602D000F01EFC03E000F01CFC71
:1003A00000F046F80020207720680169C90708D5C9
:1003B000C168C90705D56FF001010161204600F051
:1003C0000CFC20680169090608D5C168090605D535
:1003D0006FF080010161204600F000FC2068016997
:1003E000C90508D5C168090605D56FF4807101619A
:1003F000204600F0F4FB20680169490608D5C16871
:10040000490605D56FF040010161204600F0E8FB88
:100410002068016989060AD5C168890607D56FF089
:10042000200101612046BDE8104000F0DABB10BD9C
:10043000204600F0D7BB70B5064606F13C04207894
:100440000D46012801D1022070BD0120207002203C
:10045000607052B1042A18D0082A28D00C2A36D04D
:10046000102A46D0142A54D064E0306800F024F9F1
:100470003068816941F0080100F067F821F004015B
:1004800000F063F82A6911430FE0306800F03BF98F
:100490003068816941F4006100F057F821F480610F
:1004A00000F053F82A6941EA0221816142E0306894
:1004B00000F05CF93068C16941F0080100F041F8D2
:1004C00021F0040100F03DF82A6911430FE0306883
:1004D00000F07EF93068C16941F4006100F031F844
:1004E00021F4806100F02DF82A6941EA0221C161FE
:1004F00020E0306800F08FF93068416D41F008016C
:1005000000F01BF821F0040100F017F82A691143EC
:100510000FE0306800F09DF93068416D41F40061F2
:1005200000F00BF821F4806100F007F82A6941EA35
:100530000221416500F00DF870BD41653068416DE4
:100540007047C1613068C1697047816130688169F5
:1005500070470120607000202070704738B500F0AF
:100560004FF801D1022032BD0120DFF83433207072
:1005700002206070286882681A4082600868020061
:1005800018BF10282DD0202818BF302829D0402887
:1005900023D0502816D0602818D0702803D0B0F58A
:1005A000005F07D021E000F022F82868816841F060
:1005B000770105E000F01BF82868816841F480416C
:1005C000816012E000F018F850210BE0CA68496819
:1005D000286800F096F9602104E000F00DF8402151
:1005E00000E00146286800F09EF90FE00000CB68AB
:1005F0004A68896828689EE1CA68496828686FE186
:10060000054605F13C042078012870470120607000
:100610000020207032BDDFF88C32DFF88C22984247
:10062000F0B50468DFF8845218BFB0F1804FDFF8EE
:100630008062DFF8807207D0B84218BFB04203D0A2
:10064000A84218BF90420FD19842D1F804C024F0BC
:10065000700418BFB0F1804F4CEA040417D0B842C0
:100660001CBFB042A84212D090421CBF924DA8427B
:100670000DD0924DA8421CBF914DA84207D0914D7C
:10068000A8421FBF904DA842904DA84203D1CD680B
:1006900024F440742C434D6924F080042C43984288
:1006A00004608C68C4620C68846212BF904209695D
:1006B000016301214161F0BDF0B500F085F85208F9
:1006C000520000F04CF824F002042B438D682C43B8
:1006D000754DB04218BFA84207D1CF6824F0080476
:1006E0003C43B04224F0040401D0A84205D14D6936
:1006F00022F440722A438D692A434260836149682B
:1007000041630462F0BDF0B5026A714D654E22F09E
:10071000100200F024F843EA052324F020048D6839
:10072000B04244EA0514604D18BFA84208D124F035
:100730008004CF6844EA0714B04224F0400401D09A
:10074000A84206D14D698E6922F44062354342EADF
:10075000850242608361496881630462F0BD026280
:10076000046A426883692B400D687047F0B500F059
:100770002BF822F480720262046A4268C3692B403B
:100780000D6824F400742B438D6844EA0524464D1B
:10079000B04218BFA84208D124F40064CF6844EAEC
:1007A0000724B04224F4806401D0A84206D14D69E8
:1007B0008E6922F44052354342EA05124260C36119
:1007C0004968C1630462F0BD026A424D354E70470C
:1007D00030B5026A3E4D22F480520262026A4368DA
:1007E000C4692C400D6844EA052422F400528D6847
:1007F00042EA05322B4DA8421CBF2B4DA84204D122
:1008000023F480434D6943EA85134360C46149681A
:100810000164026230BD30B5026A2F4D22F480328D
:1008200000F036F822F400322C438D6842EA05428B
:100830001C4DA8421CBF1C4DA84204D123F4803398
:100840004D6943EA05234360446549688165026256
:1008500030BD30B5026A214D22F4801200F018F844
:1008600044EA052422F400128D6842EA05520D4D37
:10087000A8421CBF0C4DA84204D123F480234D692B
:1008800043EA8523436044654968C165026230BD1F
:100890000262026A4368446D2C400D687047000094
:1008A0008800FEFF0000014000040140000C0040F1
:1008B00000080040000400400040014000440140A6
:1008C0000048014000180040001C0040002000408B
:1008D000FF8CFFFE8CFFFEFF8FFFFEFFFF8FFFFEF2
:1008E00010B5036A046A640864000462846924F031
:1008F000F00444EA0212826123F00A021143016209
:1009000010BD10B5036A23F0100303628369046A03
:1009100023F4704343EA0232826124F0A00242EAE7
:100920000111016210BD826822F07002114341F092
:1009300007018160704710B5846824F47F44214327
:10094000114341EA0321816010BD10B5036A01F033
:100950001F0101248C4002FA01F1A3430362036AE0
:100960001943016210BD000010B59AB00FF2542077
:100970000FC815AC84E80F0007A80021002200234F
:100980000EC068461C2100F02FF90AA82C2100F0A7
:100990002BF9834C83482060D72060600020A06042
:1009A00040F6C310E060002020616061A061204635
:1009B000FFF722FC08B100F08BF94FF4805015A925
:1009C00015902046FFF7CAFD08B100F081F92046D6
:1009D000FFF744FC08B100F07BF9002007A907905D
:1009E00008900990204600F07BF908B100F070F9FA
:1009F0006020002200900020019069460290039040
:100A00000490059006902046FFF715FD08B100F010
:100A10005FF9042200F02DF808B100F059F908221E
:100A200000F027F808B100F053F90C2200F021F88B
:100A300008B100F04DF900200AA90A900B900C9023
:100A40000D900E904FF400500F90002010901190D8
:100A50004FF000701290002013901490204600F088
:100A600068F908B100F034F9204600F073F81AB0C4
:100A700010BD69462046FFF7DEBC10B584B068465D
:100A8000002100220023484C0EC04848A16020608D
:100A90006B20606040F2E7300FE010B584B068462C
:100AA000002100220023424C0EC04248A160206079
:100AB00042F62F20606042F20F70E0602046A16194
:100AC000FFF79AFB08B100F003F900206946009097
:100AD0000290204600F004F908B100F0F9F81FBDBB
:100AE00080B500682F4A3449904209D1486840F0E7
:100AF00001004860486800F001000090009801BDC6
:100B00002A4A90420FD10868002240F01000086085
:100B10000868002100F0100000900098362000F0D6
:100B200065F9362011E0234A904212D1086800226C
:100B300040F0200008600868002100F020000090CC
:100B40000098372000F052F93720BDE8024000F04D
:100B50006AB901BD10B586B0044601A8142100F0A1
:100B600043F820680F49884217D11448016841F0C2
:100B700010010160006801A900F0100000900098C9
:100B80004FF4D44001900220029000200390049082
:100B9000012005900A4800F071F906B010BD000070
:100BA000C444002000000140044500200010004023
:100BB00044450020001400404038024030380240D4
:100BC00000100240000000000000000000000000D3
:100BD00000000000704770477047704770477047CB
:100BE0007047704770470000002200F03FBA0000D5
:100BF00080B500F055FA00F013F800F05DFA00F04F
:100C0000C7FAFFF7B1FEFFF738FFFFF746FF00F026
:100C1000DFFA00F0E5FA00F006FB00F0FBFBFEE770
:100C200000B5B7B006A83421FFF7DEFF01A81421F4
:100C3000FFF7DAFF13A89021FFF7D6FF22480168DB
:100C400041F080510160006800F0805000900098F1
:100C50001E48016841F440410160006800F44040D2
:100C600000900098012006904FF4803007900220F9
:100C70000C904FF480000D900D200E90D8200F9016
:100C800002201090119006A800F0F6FB00F02AFE5A
:100C90000F200721019002200290002003904FF4C2
:100CA000A05004904FF48050059001A800F049FD39
:100CB0004FF4E0701390002024902590269013A804
:100CC00000F04CFE37B000BD4038024000700040DC
:100CD00070470000D960002180F83C10002010BD52
:100CE00070B500F13C021378012B01D1022070BDD8
:100CF00001232F4E1370022353700368B3421CBFAD
:100D00002C4EB3425C689D6803D14E6824F4700495
:100D1000344324F070048E68096825F0800521436F
:100D200059600068354385600120507000201070C4
:100D300070BD10B590F83C20012A01D1022010BDF1
:100D400001221B4C80F83C20CA688B6822F4407258
:100D50001A434B6822F480621A430B6822F4006243
:100D60001A430B6922F480521A434B6922F4005251
:100D70001A438B6A22F480421A4322F470228B6950
:100D800042EA03420368A3421CBF0A4CA3420CD1AF
:100D900022F470024C6A42EA0452CC69096A22F0D9
:100DA0008072224322F000720A435A6493E70000E3
:100DB00000000140000401400901020002D429485A
:100DC00081547047284802F00F02104400F8041CB8
:100DD000704726494FF6FF030A68000200F4E060FE
:100DE0001A401043224A10430860704738B51F4B21
:100DF0001B68C3F30223C3F10704052C28BF042496
:100E00001D1D072D34BF0023DB1E012505FA04F448
:100E1000641E2140994005FA03F35B1E1A401143FA
:100E2000BDE83440C8E7002807D4012100F01F02C4
:100E30009140104A400942F820107047401EB0F11E
:100E4000807F10B501D3012010BD0B4C0F216060D5
:100E50004FF0FF30FFF7B0FF0020A06007202060B8
:100E6000002010BD00E400E018ED00E00CED00E013
:100E70000000FA0500E100E010E000E02DE9F84F85
:100E800002460023DFF8B081DFF8B091DFF8B0A1AF
:100E90004FF00F0B0C680120984000EA040E8645C5
:100EA00040F0C0804D689C00022D18BF122D0FD15C
:100EB000DD0802EB850C04F01C050BFA05F7DCF8E5
:100EC0002060BE430F6907FA05F53543CCF8205082
:100ED00016680F794FEA430C032505FA0CF5ED432C
:100EE0002E4007F0030707FA0CF73E4316604E68E2
:100EF000012E18BF022E03D0112E18BF122E0FD1B3
:100F00009668CF682E4007FA0CF73E439660566805
:100F100026EA00004E68C6F300169E40304350603B
:100F2000D06828408D6805FA0CF52843D0604868E1
:100F3000C00077D5DAF8000004F00C060BFA06F4CE
:100F400040F48040CAF80000DAF8000000F4804065
:100F500000900098980859F8205025EA0404394D6B
:100F6000AA4208BF00252CD0374DAA4208BF012550
:100F700027D0364DAA4208BF022522D0344DAA42BE
:100F800008BF03251DD0334DAA4208BF042518D041
:100F9000314DAA4208BF052513D0304DAA4208BFE3
:100FA00006250ED02E4DAA4208BF072509D02D4D8B
:100FB000AA4208BF082504D02B4DAA420CBF092520
:100FC0000A25B5402C4349F82040D8F800406FEA84
:100FD0000E0000EA040C4C68E40348BF4EEA0C0C17
:100FE000C8F800C0D8F8044000EA040C4C68A40318
:100FF00048BF4EEA0C0CC8F804C0D8F8084000EA14
:10100000040C4C68E40248BF4EEA0C0CC8F808C057
:10101000D8F80C4020404C68A40248BF4EEA0000BB
:10102000C8F80C005B1C102BFFF434AFBDE8F18F47
:1010300002B9090481617047003C01400838014051
:101040004438024000000240000402400008024010
:10105000000C024000100240001402400018024040
:10106000001C0240002002400024024000B500BFE6
:10107000130096469446103928BFA0E80C50FAD8C1
:101080005FEA417C28BF0CC048BF40F8042BC90769
:1010900028BF20F8022B48BF00F8012B00BD00003C
:1010A00080B50320FFF795FE002000F0ADFE00F0B4
:1010B000CBFE002002BD000030B587B001A814218E
:1010C0002A4DFFF791FD2A4801220168294C41F081
:1010D00010010160016801F0100100F04DF841F0CD
:1010E00004010160016801F0040100F045F841F0DD
:1010F00080010160016801F0800100F03DF841F0DD
:1011000002010160016801F0020100F035F841F0D0
:1011100008010160016801F0080100F02DF841F0BC
:101120000101016000683C2100F00100009000987E
:101130002846FFF77DFF002240212846FFF778FF71
:1011400001224FF4C0412046FFF772FF7C2000F0DF
:1011500017F82846FFF792FE4FF4C04000F010F851
:101160002046FFF78BFE07B030BD000000100240A4
:101170003038024000080240009100990168704731
:1011800001A9019001200290002003900490704773
:1011900080B50E480022016841F40011016000682A
:1011A000002100F40010009000980C20FFF71EFEB4
:1011B0000C20FFF738FE002200211020FFF716FE5A
:1011C0001020BDE80240FFF72EBE00BF30380240BD
:1011D00080B58448844900F02EF800B11FE001BDBD
:1011E00080B5824882490160824941604FF4805154
:1011F00081604FF40051C1604FF4806101610C21A6
:10120000416100218161C1610162022141624FF4AB
:101210008031C16200F030FE00B100E001BDBDE8E8
:101220000140FFF755BD80B57348744900F003F8DD
:1012300000B1F4E701BD01604FF46121416000217C
:101240008160C16001610C21416100218161C16146
:101250000162416200F010BE2DE9F04786B00446FD
:1012600001A81421FFF7C0FC22685F4B6448654960
:101270009A4217D14A6942F010024A614A6902F063
:10128000100200F0A0F8096801F002010091009935
:101290004FF4404100F09EF80421059101A9FFF7A9
:1012A000EDFD85E0524B584D9A424FF480764FF455
:1012B00080694FF00068554FDFF854A132D10869BA
:1012C00040F400300861086900F400300090009894
:1012D000086840F008000860086801A900F00800EC
:1012E0000090009860200190022000F064F85046C1
:1012F000FFF7C4FD05F1600038600020C7F80480E6
:10130000B860F860C7F810907861B861FE61386223
:101310007862384601F076F808B1FFF7D9FCE76645
:10132000BC6345E0354B9A4242D10A6942F48022BF
:101330000A610A6902F4802200F045F80A6802F0A6
:1013400002020092009A0A6842F008020A600968E4
:1013500001F00801009100994FF4006100F03AF8A3
:101360000721059101A9FFF789FD0220019600F0F0
:1013700022F801A95046FFF781FD3D660020C7F81D
:10138000648007F18405B866F866C7F870907867DE
:10139000B867FE67C7F88000286007F1600001F0B9
:1013A00031F808B1FFF794FC07F16000E0666C616A
:1013B00006B0BDE8F087029000200390032004905F
:1013C0000720059070470092009A0A6842F00202D6
:1013D0000A607047019102210291002103910321CB
:1013E00004917047D042002000100140504300207B
:1013F00000440040A0860100D04300200048004087
:1014000000040240303802402860024010420020B0
:10141000000C024080B501F0ADF901F077FC01F05D
:1014200097FD01F04BFE1048FEF7F3FE0F48BDE8B4
:101430000240FEF7EEBE80B5002204210C48FFF703
:10144000F7FD01F083FC01F0A1F901F04DFE01F080
:101450009DFD08480188491C018001BD0548002107
:101460000180418070470000044500204445002071
:1014700000100240364600202DE9F041040082B001
:101480004FF0000817D02078DFF83054C00747D558
:10149000A86800F00C00042807D0A86800F00C0031
:1014A00008280AD16868400207D52868800337D524
:1014B0006068002834D1012041E16068B0F5803FC8
:1014C00009D008B928680AE0B0F5A02F286806D12D
:1014D00040F480202860286840F4803005E020F443
:1014E00080302860286820F480202860606858B127
:1014F00001F090FE07462868800311D401F08AFEAF
:10150000C01B6528F7D317E101F084FE0746286861
:10151000800305D501F07EFEC01B6528F7D30BE1E3
:101520002078800718D5A86810F00C0F07D0A8689D
:1015300000F00C00082825D16868400222D42868F1
:10154000800702D5E0680128B5D12868216920F01C
:10155000F80040EAC10028602078000743D56069A0
:101560000028686F30D040F00100686701F052FE3B
:101570000746686F800736D401F04CFEC01B032875
:10158000F7D3D9E0E068002828680ED040F00100C9
:10159000286001F03FFE074628688007D5D401F097
:1015A00039FEC01B0328F7D3C6E04008400028607E
:1015B00001F030FE074628688007CDD501F02AFEED
:1015C000C01B0328F7D3B7E040084000686701F06C
:1015D00021FE0746686F800705D501F01BFEC01B82
:1015E0000328F7D3A8E0207840075CD5286CC0001A
:1015F0000AD4286C4FF0010840F080502864286C11
:1016000000F0805000900098DFF8BC623068C005A0
:101610000FD4306840F48070306001F0FBFD074665
:101620003068C00505D401F0F5FDC01B6528F7D36F
:1016300082E0A068012808D008B9286F09E00528D1
:10164000286F06D140F004002867286F40F00100A1
:1016500005E0400840002867286F20F00400286754
:10166000A06841F2893658B101F0D4FD0746286FD1
:10167000800711D401F0CEFDC01BB042F7D35BE070
:1016800001F0C8FD0746286F800705D501F0C2FDAF
:10169000C01BB042F7D34FE0B8F1000F03D0286C65
:1016A00020F080502864A069002847D0A96801F084
:1016B0000C0108293FF4FFAE0228286820F0807052
:1016C00028602ED101F0A6FD07462868800105D5C7
:1016D00001F0A0FDC01B0328F7D32DE0E069216ACB
:1016E0000843616A40EA8110A16A891EC903090C96
:1016F00040EA0140E16A40EA0160216B40EA017082
:101700006860286840F08070286001F083FD07461B
:101710002868800112D401F07DFDC01B0328F7D397
:101720000AE001F077FD07462868800106D501F040
:1017300071FDC01B0328F7D3032000E00020BDE8A3
:10174000F6812DE9F0410400884650D05F4E3068A4
:1017500000F00F00404502D200F06EF847D120683B
:10176000564F810712D5400703D5B86840F4E050C2
:10177000B8602078000703D5B86840F46040B860CE
:10178000B868A16820F0F0000843B8602078C0076E
:1017900025D56068012802D13968890303E0022851
:1017A000396802D1890102D421E089071FD5B968BF
:1017B000890840EA8100B86001F02CFD0546B86850
:1017C000616800F00C00B0EB810F08D001F022FD41
:1017D000401B41F289318842F1D303202AE030686E
:1017E00000F00F00804504D200F026F801D001205F
:1017F00020E02078400705D5B868E16820F4E05083
:101800000843B8602078000706D5B868216920F43D
:10181000604040EAC100B86000F018F8BA682C498E
:10182000C2F30312895CC84025490860002000F01B
:10183000EBFA0020BDE8F0813068000948EA0010AA
:101840003060306800F00F004045704710B5224C02
:10185000606800F00C00042802D0082802D019E0CB
:101860001E4810BD2068002300F03F02206840029F
:101870002068C0F388104CBF18491249A1FB000131
:1018800001F0CEFC2168C1F30141491C4900B0FBC5
:10189000F1F010BD0B4810BD09480E4A00681268EF
:1018A0000F49C2F3822206E005480A4A006812681E
:1018B0000B49C2F34232895CC8407047003802408D
:1018C0000C0000200024F40000700040003C0240A6
:1018D00090330008083802400438024080BA8C0176
:1018E0004C35000870B582B000F020F840F480302C
:1018F00000F030F806466068C00305D401F08AFCA9
:10190000801BA842F7D30DE0206840F4003000F0BF
:1019100021F806466068800306D401F07BFC801B3A
:10192000A842F7D3032076BD002076BD08480168A1
:10193000064C40F2E93541F080510160006800F04A
:1019400080500090009820687047000000700040B0
:1019500040380240206001F05DBC00002DE9F047F6
:1019600082B0044620780027B846DFF88C54C007C0
:101970000AD5A86820F40000A860A868616B084335
:10198000A860606B00B901272068DFF8706400036D
:101990000ED5B068E16B20F440100843B060E06BF6
:1019A000B0F5801F08BF012702D008B94FF0010829
:1019B0002068C0020ED5B068216C20F440000843B6
:1019C000B060206CB0F5800F08BF012702D008B9C5
:1019D0004FF001082068C10148BF012780065DD58E
:1019E000286CDFF81C9440F080502864286C00F0CC
:1019F000805000900098D9F8000040F48070C9F839
:101A0000000001F007FC8246D9F80000C00506D4AA
:101A100001F000FCA0EB0A006528F5D3BDE1286FBA
:101A200010F440701EBF216B01F4407188421DD03C
:101A3000286F296F41F480312967296F20F44070A5
:101A400021F4803129672867286FC0070ED501F07F
:101A5000E1FB8246286F800708D401F0DBFBA0EB96
:101A60000A0041F289318842F4D396E1206B00F4F8
:101A70004071B1F5407F07D1A968DFF88823104095
:101A800021F4F811084302E0A86820F4F810A860D7
:101A9000286F216BC1F30B01084328672078C0062B
:101AA00007D5B06820F08070B060B068A16B0843C3
:101AB000B0602068400405D5F068616E20F44030C5
:101AC0000843F0602068000405D5F068A16E20F49A
:101AD00040200843F0602068C00305D5F068E16E3F
:101AE00020F440100843F0602068800305D5F068BA
:101AF000216F20F440000843F0602078400605D5AF
:101B0000F068616C800841EA8000F060207800068F
:101B100005D5F068A16C20F00C000843F060206847
:101B2000C00505D5F068E16C20F030000843F06096
:101B30002068800505D5F068216D20F0C0000843BD
:101B4000F0602068400505D5F068616D20F44070B4
:101B50000843F0602068000505D5F068A16D20F409
:101B600040600843F0602068C00405D5F068E16D6E
:101B700020F440500843F0602068800405D5F068E8
:101B8000216E20F440400843F0602068400205D5F3
:101B9000F068A16F20F080600843F0602068800248
:101BA0000BD5F068E16F20F000600843F060E06F53
:101BB000B0F1006F08BF4FF001082068010748BF6F
:101BC0004FF00108400305D5F068616F20F04070C8
:101BD0000843F0602068000206D5F068D4F8801051
:101BE00020F080500843F060216804F1840049012E
:101BF00005D5F168026821F000511143F1602168B8
:101C0000090105D5B168426821F000711143B16046
:101C10002168C90005D5B168806821F0806108435A
:101C2000B0601FB92068B0F1007F58D100F0D2F841
:101C300007462868000105D501F0ECFAC01B6528AD
:101C4000F7D3AAE02078C0070AD5606B40B900F04E
:101C5000AFF801F070610843A16840EA017030609C
:101C60002068010303D5E16BB1F5801F05D0C002E8
:101C700010D5206CB0F5800F0CD100F099F8E26817
:101C800000F090F83060B068616A4009491E41EA8E
:101C90004010B0602068C00106D530683168236903
:101CA000626800F08DF830602068800108D52169F5
:101CB0006068090441EA8010E16800F091F8306042
:101CC000286840F0806000F088F807462868000126
:101CD00005D401F09FFAC01B6528F7D35DE0B8F189
:101CE000000F5CD0286820F0805000F076F807469E
:101CF0002868800005D501F08DFAC01B6528F7D350
:101D00004BE02068010301D5E16B19B1C00214D585
:101D1000206C90B970687168626900F4403040EAE4
:101D20008210A26900F03EF87060B068A16A20F4E9
:101D3000F850491E40EA0120B060206880020AD5B0
:101D4000E06FB0F1006F06D170687168236A626954
:101D500000F036F870602078000713D5706871685D
:101D6000626901F4403141EA821100F07060084379
:101D7000E16940EA01707060B068E16A20F44030C7
:101D80000843B06000F032F804462868800006D4AA
:101D900001F040FA001B6528F7D3032000E0002083
:101DA000BDE8F68701F0E04140EA02600843704771
:101DB00030683168626800F4403040EA8210704751
:101DC0001B0443EA821200F0706001F0E04110430E
:101DD00008437047286820F08060286001F01ABA34
:101DE00040EA0160A16840EA01707047286840F04D
:101DF0008050286001F00EBA00380240843802405A
:101E000000700040FFFCFF0F38B50D4D04462978E7
:101E10004FF47A70B0FBF1F00A490968B1FBF0F0B9
:101E2000FFF70CF850B9102C08D2002221464FF0D1
:101E3000FF30FEF7DBFFAC60002032BD012032BD79
:101E4000000000200C00002081B00A48016841F029
:101E500080510160016801F0805100910099416852
:101E600041F480414160406800F480400090009857
:101E700001B070474038024038B5040009D004F181
:101E80007005686808B900F00FF800F011F8012833
:101E900001D1012032BD606A08B100F022F800F0E3
:101EA00018F821F02A010DE028702046FFF7D4B978
:101EB00024206860206801684908490001602046C4
:101EC00000F066B8816000F00FF8BDE8324000F025
:101ED000E8B92068416821F4904141602068816838
:101EE0007047204600F07AB92068016841F001018E
:101EF00001602046704738B5044604F15805286A49
:101F000020283FD159B3100029D0287E012839D08C
:101F100001202876002061652A80686222202862DC
:101F20006869F0B10FF24D411346C16369690FF260
:101F30007D40086469690FF27D40C86469690020CA
:101F400008652068626D00F12401686900F0CDFA2F
:101F500038B110206862002028762020E861012036
:101F600032BD002028762068016841F4807101604C
:101F70002068816841F0010181602068816841F03A
:101F8000400101E0022032BD8160002032BD00002E
:101F9000884B70B504460020216800250A681A4065
:101FA000A3681A4323691A4363691A43E3691A430E
:101FB0000A604A68E36822F440521A434A608A6819
:101FC000A36922F430621A43236A1A437A4B994276
:101FD0008A607A4A21D1116801F00301032903D8EC
:101FE000DFE801F0693829471021E2694FF6F07601
:101FF000B2F5004F40F0A98061B1012900F07F8067
:10200000022900F07F80042900F08380082900F075
:1020100089808FE0FFF740FC7DE0694B99420CD14D
:10202000116811F00C0168D0042913D0082902D0DE
:102030000C291ED0D8E70221D7E7624B99420BD179
:10204000116811F0300158D0102903D02029F2D0A6
:102050003029EEE70421C8E75B4B99420BD11168A8
:1020600011F0C00149D04029F4D08029E3D0C02923
:10207000BAD10821B9E7554B99420CD1116811F436
:1020800040713AD0B1F5807FE4D0B1F5007FD2D075
:10209000B1F5407FCDE74E4B99420ED1116811F456
:1020A000406108D0B1F5806FD4D0B1F5006FC2D0D7
:1020B000B1F5406FBDE7012197E7464B99420CD13E
:1020C000116811F4405118D0B1F5805FC2D0B1F55C
:1020D000005FB0D0B1F5405FABE73F4B994283D191
:1020E000116811F4404108D0B1F5804FB2D0B1F57C
:1020F000004FA0D0B1F5404F9BE7002175E7FFF7F7
:10210000D3FB08E06068410801F1F47101F59041EA
:102110000CE0FFF79BFB61684A0802EB4000B0FB54
:10212000F1F005E06068410801F58031B1FBF0F0A5
:1021300080B200E00125A0F11001B14234D206EADC
:102140000001C0F3420008432BE041B1012909D04E
:1021500002290AD004290FD0082915D01CE0FFF766
:102160009BFB0BE0FFF7A0FB08E06068410801F56E
:10217000740101F510510BE0FFF768FB616800EB9B
:102180005100B0FBF1F005E06068410801F5004145
:10219000B1FBF0F080B200E00125A0F11001B142E6
:1021A00002D22168C86000E0012500202066606638
:1021B000284670BDF369FFEF0010014090380240DF
:1021C0000044004000480040004C004000500040E7
:1021D0000014014000780040007C004090F824107A
:1021E000C90706D501684A68836A22F400321A4397
:1021F0004A6090F82410890706D501684A68C36AC6
:1022000022F480321A434A6090F82410490706D518
:1022100001684A68036B22F480221A434A6090F8EE
:102220002410090706D501684A68436B22F400426E
:102230001A434A6090F82410C90606D501688A68D6
:10224000836B22F480521A438A6090F82410890626
:1022500006D501688A68C36B22F400521A438A606B
:1022600090F82410490610D501684A68036C22F4DE
:1022700080121A434A60026CB2F5801F05D14A6889
:10228000436C22F4C0021A434A6090F824100906F5
:1022900006D501684A68806C22F400221043486029
:1022A000704738B5054605F170040020E06000F085
:1022B000B1FF2968096809070CD56FF07E41034614
:1022C000009100224FF40011284600F009F808B1EF
:1022D000032032BD20206060A0600020207032BD4D
:1022E0002DE9F04104460D4690461F46069E2068A3
:1022F000C0692840A8420CBF01200020404518D1E9
:1023000016F1010FF3D000F085FFC01B864201D308
:10231000002EECD12068016821F4D07100F00CF897
:1023200004F17000202141608160002101700320D0
:1023300000E00020BDE8F081016020688168490864
:1023400049008160704701680A6822F0C0020A6093
:1023500020214167704701680A6822F490720A6080
:1023600001688A68520852008A6020218167002132
:1023700001667047816BC069B0F5807F13D0002083
:10238000A1F85A000868026822F4807202600868A6
:1023900082685208520082600868826822F0400217
:1023A000826020208867084600F0B1BF806B00F093
:1023B000AFBF0000F8B5846B04F1740528686E683F
:1023C000216804F152078968090606D5212804D13D
:1023D000002038802046FFF7B6FF2068806840065E
:1023E00006D5222E04D1002038812046FFF7B3FF06
:1023F000A86840F01000A8602046BDE8F24000F058
:1024000088BF000070B5044600F004FF06460CB912
:10241000012070BD04F1340500202870022068708E
:1024200000F09BF820680168C90708D500F0F2FEAB
:10243000801B0628F6D320202862032053E0016881
:10244000DFF8B822114062681143A2681143E268C4
:1024500011432269114362691143A2691143E26980
:102460001143226A1143626A042A03D1E26A236B90
:102470001A431143016020684169626AC90842EA4F
:10248000C101042A0AD1A26AE36A114333B1A669E1
:1024900096B9002A18BF022A20D017D341612046DE
:1024A00000F050F9AA6A3F21914081600020286223
:1024B00001206870002070BDB6F5005F0AD1032AC4
:1024C000ECD8DFE802F00D0B0D03E7E7B3F1C07FB6
:1024D000E4D105E0022A03D9D21EDFD1DA01DDD52D
:1024E000402028620120687070BDF8B500240546C0
:1024F00005F134063078776A012801D10220F2BD57
:1025000001203070707801281DD10220707028469B
:10251000346200F007F9B16A3F208840B86028684B
:10252000016841F0160101602868416941F08001AD
:102530004161F06820B12868016841F0080101603C
:1025400000F005F801E0347002242046F2BD28684E
:10255000016841F001010160704720680168490885
:102560004900016070472DE9F041044682B0002027
:1025700004F134060090776A61484FF41651006800
:102580003D68B0FBF1F8B16A082000FA01F10D4294
:102590000ED021680A6852070AD50A6822F00402A0
:1025A0000A60B16A8840B860306A40F00100306269
:1025B000B06A25FA00F1C9070BD5216849690906F7
:1025C00007D5012101FA00F0B860306A40F002003E
:1025D0003062B16A04208840054208D02168096849
:1025E000890704D5B860306A40F004003062B16AEF
:1025F0001020884005421DD021680968090719D5B7
:10260000B86020680168490308D5006800030CD54C
:10261000716908000ED0204688470BE00168C905A3
:1026200003D4016821F008010160F16808001CBFB3
:1026300020468847B16A2020884005423DD0216865
:102640000968C90639D5B86020687178052901681C
:1026500018D100F057F8F068002804BF706900280E
:1026600001D000F058F8B16A3F208840B8600020DF
:10267000307001207070F16908003BD02046BDE841
:10268000FC410847490308D50068000310D43169AC
:10269000080012D0204688470FE00168C90507D41A
:1026A000016821F01001016000203070012070707D
:1026B000B16808001CBF20468847306AD0B1306A34
:1026C000C00710D505207070FFF747FF0098401C29
:1026D0008045009003D320680068C007F6D400202E
:1026E000307001207070B169080003D02046BDE849
:1026F000FC410847BDE8F381000000003F8010E086
:102700000C00002021F0160101602068416921F0D1
:102710008001416170472068016821F00801016073
:102720007047000030B50468256825F480252560D1
:1027300063608068402802D1A260E16030BDA16082
:10274000E26030BD0168182301F0FF02890A103AE7
:102750008902B2FBF3F2042A0FF210039B5C28BF3C
:10276000091DC36581650846704700000006101604
:1027700000061016DFF88005002101804FF48072FA
:10278000DFF87815DFF87805FFF7B5BB00BF00BFAD
:102790002DE9F84FDFF86C05DFF86C152DED068B91
:1027A000006882B09FED0C8ADFF85065DFED0B8A80
:1027B00040689FED0B9ADFED0B9AB1EE04AAC0F5CD
:1027C00080700880DFF8300500F1700100F1280A00
:1027D0000191851C13E200BF0000C8C20000C8427E
:1027E0000000B0C36EDB36C28B1C00F045FA2880B7
:1027F000C81C00F03AFAF35C580100EBD707081D3B
:10280000C7F30A076F804F1DFC1107EB14642412F5
:10281000A7EB042400F022FA345D305C800000EB6A
:102820009310670800EB8420C0F30A00A880881D7D
:1028300000F01BFAC81DF35C07EBC317C7F30A07C8
:10284000EF80C71100EB17673F12A0EB0727F75D7A
:10285000380100EB131301F10800C3F30A032B81C5
:1028600001F10903DC1103EB14642412A3EB04232C
:10287000F45CC31100EB13631B12A0EB0320305C6C
:10288000400000EBD710A70800EB4420C0F30A007B
:10289000688101F10A0000F0E8F901F10B00F35C36
:1028A00007EB8317C7F30A07AF8100F0D7F9305C55
:1028B000C00000EB531001F10D03E88101F10C00A1
:1028C00000F0DAF9288201F10E0000F0CEF901F1F2
:1028D00010004FEAE01E00EB1E6EF45CFB0803EBF9
:1028E000441301F10F074FEA2E2EA0EB0E20C3F385
:1028F0000A036B8216F800E0F81107EB1060F3EEA4
:10290000090A9FEDD42B0012A7EB002701F111005B
:10291000F75DBF0007EB9417C41100EB146407EBDD
:102920008E272412A0EB0420C7F30A07AF82345C81
:102930004FEA5E0000EBC410C0F30A0C01F1120074
:102940004FEAE01EA5F816C000EB1E6E4FEA2E2ED1
:10295000A0EB0E2016F80090200900EB091001F101
:102960001304C0F30A0E01F114004FEAE018A5F8B1
:1029700018E000EB18684FEA2828A0EB082016F8AA
:102980000080E01104EB10600012A4EB0024345D21
:10299000640004EBD91001F1150400EB4820C0F3EA
:1029A0000A09E01104EB1060A5F81A900012A4EBDC
:1029B0000020305C840104EB9804C4F30A0801F1A0
:1029C00016044FEAE41BA5F81C8004EB1B6B4FEACE
:1029D0002B2BA4EB0B24345DE40004EB5010E883B4
:1029E00001F11700C11100EB11610912A0EB0121E7
:1029F0004FF4A860715C01F0010410FB04F404F5CD
:102A0000B0742C84C1F3400410FB04F404F5B074DA
:102A10006C842C8800EE104AB8EE400A20EE200AA2
:102A2000DFEDB30A80EE200AB7EEC00A30EE020BEB
:102A3000B7EEC00B8AED000A6C88DFEDAD0A00EE40
:102A4000104AB8EE400A20EE0A0A80EE200A30EE64
:102A5000290AB1EE400A8AED010AAC88DFEDA50A29
:102A600000EE104AB8EE400A30EE090A80EE200A65
:102A7000F0EE480A40EE280AB1EE600A8AED020A3A
:102A8000EC88DFED9B0A00EE104AB8EE400A20EE1B
:102A90000A0A80EE200A30EE290A8AED030A2C8900
:102AA000DFED940A00EE104AB8EE400A30EE090A53
:102AB00080EE200AF0EE480A40EE280AC1F3C0007A
:102AC000CAED040A6C89DFED8B0A00EE104AB8EEFD
:102AD000400A30EE090A80EE200AF0EE480A40EE85
:102AE000280ACAED050AAC89DFED820A00EE104A19
:102AF000B8EE400A30EE090A80EE200AF0EE480AED
:102B000040EE280ACAED060AEC89DFED7A0A00EEEB
:102B1000104AB8EE400A30EE090A80EE200AF0EEC4
:102B2000480A40EE280ACAED070A2C8ADFED710A2E
:102B300000EE104AB8EE400A30EE090A80EE200A94
:102B4000F0EE480A40EE280A00EE103AEB8BCAED90
:102B5000080AB8EE400A30EE090ADFED660A80EE98
:102B6000200AF0EE480A40EE280A00EE107A019F93
:102B7000CAED090AB8EE400A30EE090ADFED5D0A37
:102B800080EE200AF0EE480A40EE280A00EE10CA55
:102B9000CAED0A0AB8EE400A30EE090ADFED550A1E
:102BA00080EE200AF0EE480A40EE280A00EE10EA15
:102BB000CAED0B0A00F074F800EE109ACAED0C0A88
:102BC00000F06EF800EE108ACAED0D0A00F076F8FB
:102BD0002B8CCAED0E0A00F071F86B8CCAED0F0A4F
:102BE00000F06CF8C1F38003CAED100A00F058F849
:102BF000CAED110A3B70019948704348428000F0C9
:102C00006CF8192821DB40484188725C481C0F2A67
:102C100012D101F11802D31102EB136300921B12BF
:102C2000A2EB0322B35C042B18BF142B02D0242B7D
:102C300018BF342B3FF4D8ADC11100EB116109125C
:102C4000A0EB012030494880D9E702B0BDEC068BEB
:102C5000BDE8F18F0AD7A3703D926CC0C71100EB9D
:102C600017673F12A0EB07207047C31100EB1363F7
:102C70001B12A0EB03237047DF1103EB17673F1212
:102C8000A3EB0727C31100EB13631B12A0EB032078
:102C9000F75D305C00EB0720C0F30A0070470000CE
:102CA000B8EE400A30EE090ADFED120A80EE200A83
:102CB000F0EE480A40EE280A70470000B8EE400ADD
:102CC00030EE090ADFED0B0A80EE200AF0EE480A2A
:102CD00040EE280A00EE103A70470B484188008801
:102CE000884238BF00F58070401A80B270470000FB
:102CF0000000E04200002844504400201040002022
:102D000050430020104200203A46002080B54FF486
:102D1000807262496248FFF7EEF8002061490022A4
:102D200041F820200A54401C3428F9DB01BD5C48DE
:102D30000168CA69120708D50A6A42F008020A62E5
:102D40004FF480725549FFF7D6B870472DE9F84324
:102D5000FFF7EDFF5448554C0068DFF840814068AC
:102D6000C0F58070608006E0F01106EB1060001284
:102D7000A6EB0020A08000F039F858B300F036F838
:102D800007462770A58818F805006E1CFA28EBD1B5
:102D9000F01106EB10600012A6EB002918F80900EC
:102DA000FF28E1D100F033F888B900F045F8012F91
:102DB00008D105F13900C11100EB11610912A0EB36
:102DC0000120D7E7022FD6D105F14B00F3E7A4F895
:102DD0000490D0E7BDE8F183344881884088884278
:102DE00038BF00F58070401A80B2704780B5FFF799
:102DF000F3FF4B28A8BF022005DAFFF7EDFF3928C3
:102E0000ACBF0120002029490870087802BD30B508
:102E100000200121214A254B9C880C19E51104EB67
:102E20001565491C2D12A4EB0524145D00193929E0
:102E300000F0FF00F0DB30BD70B51C49194A8888EE
:102E40000C781B49154B012C04D100F04FF800F011
:102E500031F870BD022C1FD100F048F8002425186D
:102E60003B3500F03AF8082C16445D5D86F82F508B
:102E7000F5DB00242518463500F02FF8042C164405
:102E80005D5D86F83350F5DB00F014F8D06A4862D7
:102E9000906A8862106BC86270BD0000104100200B
:102EA000D04300208445002070420020304600209E
:102EB000B84500209068C860506808611068486193
:102EC000106A0860D06948609069886050698861BC
:102ED0001069C861D06808627047EE1105EB16668C
:102EE0003612A5EB06256642641C7047002425189F
:102EF000ED1DEE1105EB16663612A5EB06256642B2
:102F0000641C0C2C16445D5DF572F0DB0024251862
:102F10001635EE1105EB16663612A5EB0625664250
:102F2000641C0C2C16445D5DF575F0DB002425183F
:102F30002535EE1105EB16663612A5EB0625664221
:102F4000641C0C2C16445D5D86F82350EFDB704743
:102F500010B5554C002100F016F8042100F013F8CC
:102F6000082100F010F80C2100F00DF820684FF453
:102F70007A7141638163C16301644FF4FA70BDE803
:102F8000104000F0C7B92046FDF779B947489FEDDA
:102F9000431A84B0DFED420A90ED0C0A6946B4EEA4
:102FA000410AF1EE10FA06D410F8702F012A04BF7E
:102FB0004078012808D1CDED000AC1ED010AC1ED2C
:102FC000020AC1ED030A34E0BDEEC00A10EE100A99
:102FD00000EB800000F2DC5000EE100A3448B8EE3E
:102FE000C00A90ED002AD0ED011AF1EE422A90EDD0
:102FF000021A72EEE12A72EEC12A72EE802ACDED3B
:10300000002A72EE612A72EE812A72EE802AC1EDE8
:10301000012A72EE212A71EEC21A72EEC12A31EE35
:10302000811A72EE802A31EE000AC1ED022A81ED8A
:10303000030A002001EB800292ED000AB4EE600A60
:10304000F1EE10FA48BFC2ED000A09D49FED151A3F
:10305000B4EE410AF1EE10FAA4BF164A41F820205E
:10306000401C0428E6DB14489DED000ABCEEC00AB3
:1030700080ED000A91ED010ABCEEC00A80ED010A64
:1030800091ED020ABCEEC00A80ED020A91ED030A3E
:10309000BCEEC00A80ED030A04B070470000C4C251
:1030A00000007A440100FA44C44400205044002047
:1030B0000C4600200000FA44340001404F48B7EEAF
:1030C000080AF3EE0C0A4FF07E5180ED000A816190
:1030D00080ED010AC0ED020A80ED030A80ED040ACA
:1030E000C0ED050A704700004248434910B591ED14
:1030F0000D0A424AD0ED030A414B70EE601A414C72
:1031000091ED0B0AD0ED040A30EE602A91ED0A0A27
:10311000D0ED020A30EE601A92ED000A60EE212A2C
:10312000C3ED032A94ED003A9FED370BB7EEC33A97
:10313000B7EEE14A04EE003BF7EEC31BC4ED001A04
:10314000D1ED0C1A9FED323AF4EE431AF1EE10FA7B
:10315000B7EEC25AF4EE431A44BF00212160D2ED0B
:10316000013A94ED004A63EE843AC3ED043A90EDDF
:10317000004AD2ED024A72EEA32A24EE644A72EEAD
:10318000842A83ED054AC3ED002AD2ED032A62EEBC
:10319000822AC3ED032AD4ED013AB7EEE34A05EEE5
:1031A000004BF1EE10FAB7EEC40B84ED010A44BFF8
:1031B0000021616092ED040AD4ED010A20EE200A9C
:1031C00083ED040AD0ED010AD2ED051A32EE800A31
:1031D00060EEE10A30EE200AC3ED050A83ED010A34
:1031E00092ED060A20EE010A83ED030A83ED020A3E
:1031F00010BD0000B845002050440020E8450020E4
:103200000C46002024460020FCA9F1D24D62503F1C
:103210000000C4C201484068704700BF00000020A1
:103220001B4213D1094236D12AB18446B0FBF2F0D9
:1032300002FB10C2704700F081B8FCD300220023CB
:1032400070470B000200002100207047904271EB94
:10325000030CF6D370B5B1FA81F4B3FA83F52C1BE5
:10326000A340C4F1200532FA05F63343A2405FF0D3
:103270000046E64002E05B085FEA3202841A71EB26
:10328000030524BF204629467641F4D302000B00F3
:103290003000002170BD012ACFD970B5140C20D0A8
:1032A000B1FA81F4B2FA82F5C4F120046419B4F1E0
:1032B0002006D6D3B2405FF00044F440002502E07F
:1032C00052085FEA3303C61A71EB020E24BF304680
:1032D000714664416D41F3D302000B0020002900C8
:1032E00070BD0C46B1FBF2F102FB11452D0445EA1D
:1032F0001045B5FBF2F402FB145580B240EA0545D7
:10330000B5FBF2F002FB105240EA044070BD70477A
:103310007047704738B50446FFF77CFF14F1010F82
:10332000054602D0044800782418FFF773FF401BBD
:10333000A042FAD331BD00BF00000020704700005A
:103340000E480F4A016841F4700101600D480168A0
:1033500041F00101016000218160016811400160BC
:1033600009494160016821F4802101600021C160A8
:103370004FF00060054908607047000088ED00E0EC
:10338000FFFFF6FE003802401030002408ED00E098
:103390000000000000000000010203040607080905
:1033A0007047FEE7FEE7FEE7FEE7704770477047AD
:1033B00000F01EB80A48FFF7D6B80A48FFF7D3B89E
:1033C00080B50948FCF786FFBDE80140FEF733B839
:1033D00080B50648FCF77EFFBDE80140FEF73EB829
:1033E0007042002010420020044500204445002087
:1033F0000248416802788918416070470000002047
:1034000019E050F8041BCB0744BFA9F10103591878
:10341000121F0023042A41F8043BF9D25FEA827CA0
:103420000B4604D54FF0000CA1F800C09B1CD1073F
:1034300044BF0021197050F8042B002AE1D17047D5
:1034400010B450F8041B79B1026843680244083094
:10345000DC0744BFA9F10104E31852F8044B43F818
:10346000044B091FF9D1ECE710BC704710B50749B0
:1034700079441831064C7C44163404E00A68081D6F
:10348000114488470146A142F8D110BD2C0000002C
:103490004C0000004EF68851CEF20001086840F45E
:1034A00070000860BFF34F8FBFF36F8F4FF0007055
:1034B000E1EE100A7047000049FFFFFF30060000F0
:1034C000104000200000000079FFFFFF1000000006
:1034D00060000000000000200000000000F00BF879
:1034E000002801D0FFF7C2FF0020AFF30080FDF7F6
:1034F0007FFB00F002F80120704700F001B80000E7
:103500000746384600F002F8FBE7000080B5AFF34D
:103510000080024A11001820ABBEFBE72600020023
:103520000148804701480047413300084135000801
:103530000100000000000000100000000024F40062
:10354000AFF30080FFF7A6FFFFF7C8FF0000000001
:1035500001020304FFF7FEBFFFF7FEBFFFF7FEBF48
:10356000FFF7FEBFFFF7FEBFFFF7FEBFFFF7FEBF8F
:10357000FFF7FEBFFFF7FEBFFFF7FEBFFFF7FEBF7F
:10358000FFF7FEBFFFF7FEBFFFF7FEBFFFF7FEBF6F
:10359000FFF7FEBFFFF7FEBFFFF7FEBFFFF7FEBF5F
:1035A000FFF7FEBFFFF7FEBFFFF7FEBFFFF7FEBF4F
:1035B000FFF7FEBFFFF7FEBFFFF7FEBFFFF7FEBF3F
:1035C000FFF7FEBFFFF7FEBFFFF7FEBFFFF7FEBF2F
:1035D000FFF7FEBFFFF7FEBFFFF7FEBFFFF7FEBF1F
:1035E000FFF7FEBFFFF7FEBFFFF7FEBFFFF7FEBF0F
:1035F000FFF7FEBFFFF7FEBFFFF7FEBFFFF7FEBFFF
:10360000FFF7FEBFFFF7FEBFFFF7FEBFFFF7FEBFEE
:10361000FFF7FEBFFFF7FEBFFFF7FEBFFFF7FEBFDE
:10362000FFF7FEBFFFF7FEBFFFF7FEBFFFF7FEBFCE
:10363000FFF7FEBFFFF7FEBFFFF7FEBFFFF7FEBFBE
:10364000FFF7FEBFFFF7FEBFFFF7FEBFFFF7FEBFAE
:10365000FFF7FEBFFFF7FEBFFFF7FEBFFFF7FEBF9E
:10366000FFF7FEBFFFF7FEBFFFF7FEBFFFF7FEBF8E
:10367000FFF7FEBFFFF7FEBFFFF7FEBFFFF7FEBF7E
:10368000FFF7FEBFFFF7FEBFFFF7FEBFFFF7FEBF6E
:10369000FFF7FEBFFFF7FEBFFFF7FEBFFFF7FEBF5E
:1036A000FFF7FEBFFFF7FEBFFFF7FEBFFFF7FEBF4E
:1036B000FFF7FEBFFFF7FEBFFFF7FEBFFFF7FEBF3E
:1036C000FFF7FEBFFFF7FEBFFFF7FEBFFFF7FEBF2E
:1036D000FFF7FEBFFFF7FEBFFFF7FEBFFFF7FEBF1E
:1036E000FFF7FEBFFFF7FEBFFFF7FEBFFFF7FEBF0E
:0436F000FFF7FEBF23
:040000050800354179
:00000001FF
