:020000040800F2
:1000000050410020F94D00084D4C00084F4C0008AD
:10001000514C0008534C0008554C000800000000EB
:10002000000000000000000000000000574C000825
:10003000594C0008000000005B4C00085D4C0008B3
:100040001D4E0008214E0008254E0008294E0008CC
:100050002D4E0008314E0008354E0008394E00087C
:100060003D4E0008414E0008454E0008494E00082C
:10007000614C00084D4E0008514E0008554E0008D6
:10008000674C0008594E00085D4E0008614E00089C
:10009000654E0008694E00086D4E0008714E00085C
:1000A000754E0008794E00087D4E0008814E00080C
:1000B000854E0008894E00088D4E0008914E0008BC
:1000C000954E0008994E00089D4E0008A14E00086C
:1000D000A54E0008A94E0008AD4E0008B14E00081C
:1000E000B54E0008B94E0008BD4E0008C14E0008CC
:1000F000C54E0008C94E0008CD4E0008D14E00087C
:10010000D54E0008D94E0008DD4E0008E14E00082B
:10011000E54E0008E94E00086D4C00087D4C0008D3
:10012000ED4E0008F14E0008F54E0008F94E0008AB
:10013000FD4E0008014F0008054F0008094F000858
:100140000D4F0008114F0008154F0008194F000807
:100150001D4F0008214F0008254F0008294F0008B7
:100160002D4F0008314F0008354F0008394F000867
:100170003D4F0008414F0008454F000800000000B7
:10018000494F00084D4F0008514F0008554F0008D7
:10019000594F00085D4F0008614F0008654F000887
:1001A000694F00086D4F0008714F0008754F000837
:1001B000794F00087D4F0008814F0008854F0008E7
:1001C000894F00088D4F000800000000914F000883
:1001D000954F0008994F00089D4F0008A14F000857
:1001E000A54F0008A94F0008AD4F0008B14F000807
:1001F000B54F0008B94F00082DE9F04F82460FF2C5
:100200005860A5B015461E46D0E90023CDE912235B
:1002100003AF00207960B8620DF1500900E0454459
:100220000020ADF8020012AB4FF0FF3229460DF16D
:10023000020001F0AEF88046B8F1010F08DA287824
:10024000B0F1010868EB08086FEA08004FEAD078BF
:10025000BDF8020025280CBFA8F1010BC346BBF175
:10026000010F0EDB2C4614F8011B7868D0470028DC
:10027000786000F0F880B86A401CBBF1010BB862EE
:10028000F1D1BDF80200252807D10020386178613E
:10029000B861F8613862786205E00028BFD1B86AB9
:1002A000E2E240F0010015F8011F2029F9D02329CE
:1002B0000DD02B2904D02D2906D030290AD00CE0EE
:1002C00040F0020080B2EEE740F00400FAE740F0B0
:1002D0000800F7E740F01000F4E72A290ED1316852
:1002E000316051F8042B3160002A3A6304D5514241
:1002F00040F00400396380B26D1C13E000213963C3
:100300000BE0396B6FF00043994205D001EB81039C
:1003100002EB4301303939636D1C2A78A2F13001B8
:100320000A29EED329782E2903D04FF0FF31F96244
:100330001FE015F8011F2A2907D1316831606D1CB3
:1003400051F8042B3160FA6213E00021F9620BE0EE
:10035000F96A6FF00043994205D001EB810302EB8B
:1003600043013039F9626D1C2A78A2F130010A2963
:10037000EED3B8860FF2E840297801F01BF808B1F7
:1003800015F8010B8DF842009DF84200682802BF65
:1003900029786829622005D06C2804BF28786C2849
:1003A00003D171208DF842006D1C14A8F86015F877
:1003B000014BB4F125002AD01C3800F0DB80001F6F
:1003C000022840F2D780133800F0FB80093800F093
:1003D000D180801E00F06581401E00F03C81401EEF
:1003E000022840F2C780001F00F03581401F00F056
:1003F0009280401E00F0E580401E37D0C01E0BD01A
:10040000801E00F0DE80C01E00F0DB806CE1252045
:100410008DF85000012070E19DF842006C28306892
:10042000306016D050F8048B3060C7F80880FC6A42
:10043000002C04D5404600F0C9FF044607E02246E0
:100440000021404600F0DEFF08B1A0EB08047C610B
:1004500054E150F8042B306002A9504600F03EFAF7
:10046000002840F14B814FF0FF30FDE131683160F1
:10047000002251F8040B31604FF03C0E0021CDE911
:10048000020114A8B860DDE902019142FC6808BFCE
:10049000904201D1FA6AC2B100F00F033033DBB2EF
:1004A0003A2BA8BF2733AEF101020009A3549646A8
:1004B00040EA017009090022914208BF904204D02D
:1004C000BA6804EB0E039A42E6D304EB0E01B9605E
:1004D000CEF13C00F96A7861884207DA081AF861BF
:1004E0004FF6EF71B88E0840B88607E1002940F159
:1004F000058197F8341001F01401102940F0FE80B6
:10050000396B3A69891AFA69891A081A0128C0F2FE
:10051000F580F861F2E09DF8420062281AD0682860
:1005200006D06A280CD06C281CD0712808D019E09D
:100530003068306050F8041B3060B86A0880DDE035
:100540003068306050F8042B3060B86AC117C2E9D7
:100550000001D3E03068306050F8041B3060B86AA6
:100560000870CBE03068306050F8041B3060B86A27
:100570000860C3E03068C01D20F007023260D2E995
:10058000000108323260CDE90201002902D5386944
:100590002D2109E0B88E810702D538692B2103E0AF
:1005A000C00705D53869202109F80010401C3861C2
:1005B00014A839690844B860214602A800F09AFBE3
:1005C0009CE09DF842006C280DD0712818BF6A2865
:1005D00009D13068C01D20F007023260D2E9000165
:1005E0000832326005E03168316051F8040B316047
:1005F0000021CDE902019DF84200682803D1DDE920
:10060000020180B20BE0622803D1DDE90201C0B231
:1006100005E0742818BF7A2804D1DDE90201002121
:10062000CDE9020197F83400000731D5DDE9022356
:100630000020834208BF82422AD044F0200078285C
:1006400026D13869302109F80010401C411C39615D
:1006500009F800401CE09DF84200314600F007F91F
:10066000CDE90201DDE9022300218B4202DA38697B
:100670002D2109E0B88E810702D538692B2103E0CE
:10068000C00705D53869202109F80010401C3861E1
:1006900014A839690844B860214602A800F0A4FAF9
:1006A0002CE09DF842006C2809D0012038613068A8
:1006B000306050F8041B30608DF850101EE0306838
:1006C000306001AA50F8041B3060ADF8041000201F
:1006D000ADF8060002A94FF0FF30F862504600F076
:1006E000FDF800280AD5BEE625208DF8500001202F
:1006F00038611CB189F8014002203861386B3969D2
:10070000401AF969401A7969401A396A401AB96978
:10071000401A796AA0EB010897F83400400711D419
:100720002020B8F1010F8DF800000BDB44460123B7
:100730006A4602A9504600F007FE00287FF493AEF7
:10074000641EF4D1D7F810B0BBF1000F14AC0DD07B
:1007500014F8011B7868D047002878603FF483AE16
:10076000B86A401CBBF1010BB862F1D130208DF8A2
:100770000000FC69012C0ADB01236A4602A95046ED
:1007800000F0E2FD00287FF46EAE641EF4D1D7F8CD
:1007900014B0BC68BBF1000F0DD014F8011B7868D1
:1007A000D047002878603FF45EAEB86A401CBBF1C9
:1007B000010BB862F1D130208DF800003C6A012CA9
:1007C0000ADB01236A4602A9504600F0BDFD00285D
:1007D0007FF449AE641EF4D1B8687969D7F818B0CF
:1007E0004418BBF1000F0DD014F8011B7868D047F6
:1007F000002878603FF437AEB86A401CBBF1010BAB
:10080000B862F1D130208DF800007C6A012C0ADB3F
:1008100001236A4602A9504600F096FD00287FF4A5
:1008200022AE641EF4D197F8340040077FF5F8AC8F
:100830002020B8F1010F8DF80000FFF6F1AC012384
:100840006A4602A9504600F07FFD00287FF40BAEF7
:10085000B8F10108F3D1E3E400000000000000005B
:10086000686A6C747A4C000025B0BDE8F08F62288D
:1008700026D068281DD06A2808D06C2827D0712877
:1008800004D0742823D07A280CD020E00868C01D3A
:1008900020F007000860D0E90023083008601946FE
:1008A000104670470A680A6052F8040B0A6000217B
:1008B00070470A680A6052F8040B0A6000B20BE045
:1008C0000A680A6052F8040B0A6040B204E00A6841
:1008D0000A6052F8040B0A60C11770472DE9F44F03
:1008E0000D4694B0D5F830A0BAF1000F804648BF4D
:1008F0006FF0004A00F0B2FD696B401801900FF6EE
:100900007820D0E90023CDE9022395F8380040078C
:1009100002D40198412805D240200DF11009019020
:10092000002609E000F0A0FD5FEA0009F8D14FF0D1
:10093000FF3056E1AAEB040ABAF1010FC0F2CE80F3
:100940001498018802AA0DF1010000F0E5FD0028CD
:10095000044600F1DE801498008810B9641E00F18E
:10096000D880A245C0F2BA806869019922189142E4
:1009700080F0A2806E634042296A401AA969401A39
:10098000696A401AE969401AA96A461A95F8380056
:10099000400710D42020012E8DF800000BDB3746D5
:1009A00001236A462946404600F0CEFC002840F06C
:1009B000B0807F1EF4D1D5F814B0BBF1000F4F46C4
:1009C0000DD017F8011BA868C0470028A86000F0E8
:1009D000A080E86A401CBBF1010BE862F1D1302035
:1009E0008DF800002F6A012F0ADB01236A46294691
:1009F000404600F0A9FC002840F08B807F1EF4D117
:100A0000D5F818B0EF68BBF1000F0CD017F8011B38
:100A1000A868C0470028A8607BD0E86A401CBBF1EA
:100A2000010BE862F2D130208DF800006F6A012FCF
:100A300009DB01236A462946404600F085FC002870
:100A400067D17F1EF5D1E868A969D5F81CB04718B1
:100A5000BBF1000F0CD017F8011BA868C047002895
:100A6000A86056D0E86A401CBBF1010BE862F2D1E5
:100A700030208DF80000AF6A012F09DB01236A46A0
:100A80002946404600F060FC002842D17F1EF5D187
:100A900095F8380040070DD52020012E8DF8000074
:100AA00008DB01236A462946404600F04DFC80BB26
:100AB000761EF6D100266E61224668690DF10101AD
:100AC000484400F037FD6869201868611498801C5C
:100AD0001490801E008800287FF42CAF686B696931
:100AE000401A296A401AA969401A696A401AE969D4
:100AF000401AA96AA0EB010A95F83800400710D403
:100B0000BAF1010F0DDB5446A8682021C047A86048
:100B100010B94FF0FF365DE0E86A401C641EE862E1
:100B2000F2D16B694A462946404600F00DFC002888
:100B3000EFD12C6A012C0ADBA8683021C0470028BD
:100B4000A860E6D0E86A401C641EE862F4D1AB6994
:100B5000EA682946404600F0F7FB0028D9D16C6AC4
:100B6000012C0ADBA8683021C0470028A860D0D03B
:100B7000E86A401C641EE862F4D1E868A969EB6980
:100B800042182946404600F0DFFB0028C1D1AC6A7C
:100B9000012C0ADBA8683021C0470028A860B8D023
:100BA000E86A401C641EE862F4D195F838004007FA
:100BB0000ED5BAF1010F0BDBA8682021C047002831
:100BC000A860A6D0E86A401CBAF1010AE862F3D135
:100BD0006E616E6304A881451CBF484600F0E6FCC8
:100BE000304615B0BDE8F08F2DE9F34305460846C1
:100BF0002F696F2808BF082405D041F0200178290B
:100C000014BF0A2410243C26D5E90023642818BF09
:100C100069289046994606D100218B4203DAD8F123
:100C2000000869EB49090020814508BF80450CD1C7
:100C3000286B50B9082C38D195F83800000734D506
:100C400030203B2687F83B002FE0701E00900646C0
:100C5000404649462246E31700F0E8FC02F1300026
:100C6000C0B23A2803DB9DF8041051390818B85572
:100C7000494640462246E31700F0D8FC80468946A4
:100C80000020814508BF804503D0E868B919884233
:100C9000DBD3082C09D195F83800000705D5B85DDD
:100CA000302802D0761E3020B855B919E960C6F157
:100CB0003C00296BA861884208DA081A28624FF6BE
:100CC000EF71288F08402887BDE8F38300290ED5EF
:100CD00095F8381001F01401102908D1696B6A6980
:100CE000891A2A6A891A0E1A012EA8BF2E62BDE837
:100CF000F38300002DE9F24F04468EB0D4E90001E1
:100D0000CDE9020104AF9DF8380040F0200BBBF1A3
:100D1000610F0AD0206B002848BF062004D408BF0A
:100D2000BBF1670F01D1012020636168C1F30A5054
:100D300040F2FF7290421CD1080304BF20680028D3
:100D400009D10320A0619DF8380061381A2835D3F5
:100D50000FF2386108E00320A0619DF83800613887
:100D60001A2828D30FF21C61E068032200F0E2FB8E
:100D7000BDE1012815DA204600F0CFFC012810DB88
:100D800000250020BBF1610F1FD1E16830220A70FD
:100D90008A1CE2609DF83820612A0CBF7822582214
:100DA0000FE0626840F2FE3161F31E52451A626044
:100DB0004FF0FF30E6E70FF2C851D5E70FF2C85108
:100DC000D2E74A706169891C616110B9002600256B
:100DD00084E1BBF1610F40F09880206BD4E900AB57
:100DE00000284CBF2126461CDDE902010022002319
:100DF00000F0B6FC36B23ABF8BF00040CDE902A05D
:100E0000CDE902AB06F101082D1FB8F1010F8DF8F5
:100E100010200DF1110736DBDDE90201002200236D
:100E200000F0B6FC2FD21C2102A800F0C9FCDDE9BD
:100E3000020100F04FFDA8F10708B8F1010F81464B
:100E400009DB00F04EFD02460B46DDE9020100F031
:100E50004FFDCDE90201F81D072105E009F00F0261
:100E600000F8012D4FEA2919B9F1010F01DB491EE4
:100E7000F4D5491E5CBF002200F8012DF9D5C71D2D
:100E8000B8F1010FC8DA0DF11100391AB142B8BF3B
:100E90000E4636B230000DF111072FD4884206DA23
:100EA00004A9014449780829A8BF0F2100DA0021CC
:100EB00004AA024400E0761E12F80139401E8B425B
:100EC000F9D00F2904D104A901444A78521C4A7070
:100ED000002802D504AF761C2D1D36B2701E0DD42D
:100EE00039180A783032D2B23A2A03DB9DF838300A
:100EF0003A3B9A18401E01F80129F2D5206B0028D0
:100F000040F1EC80701E2063E8E0DDE90201002280
:100F1000002300F025FC3CBF81F00041CDE9020137
:100F20002DB247F2975068434B49DFF8309190FB60
:100F3000F1F52DB2C5F1070ABAF1010F90461CDB9D
:100F4000DDE902675FEACA7007D542464B46304684
:100F5000394600F0D6FC06460F4640464946424612
:100F60004B464FEA6A0A00F0CCFCBAF1000F80460B
:100F70008946E7D1CDE9026724E0CAF1000A0026DC
:100F8000374F14E05FEACA7007D542464B463046F9
:100F9000394600F0B6FC06460F46404649464246F2
:100FA0004B4600F0AEFC4FEA6A0A80468946BAF129
:100FB000000FE7D1DDE9020132463B4600F0AAFC12
:100FC000CDE90201BBF1660F216BDFF898900CBFF1
:100FD00005F10A0006204618142EA8BF132630205B
:100FE0008DF810000DF11107012E3DDBDDE9020146
:100FF00000F099FC07F1080104220A23B0FBF3F387
:1010000003EB8307A0EB4700303001F8010C0A2006
:10101000B3FBF0F000EB8007A3EB47033033521E25
:1010200001F8023DE9D1083E012E01F10807DBDBA2
:10103000DDE9020100F077FC00F07CFC02460B4683
:10104000DDE9020100F054FC00224B4600F059FC9F
:10105000CDE90201CAE700BFA086010000002440DC
:101060000000F03F84D797410DF11100381A0DF1BF
:10107000110702E0401E6D1E7F1C39783029F9D01F
:10108000BBF1660F08BF691C04D0BBF1650F0CBF34
:1010900001210021226B8E1836B2B042B8BF06463D
:1010A00036B231001AD4814204DA785C3528A8BF00
:1010B000392000DA30207A18521E00E0761E12F82D
:1010C0000139491E8342F9D0392802D1785C401C8D
:1010D0007854002902D57F1E761C6D1C2DB29DF818
:1010E0003810009533B23A46204600F003F80FB0AE
:1010F000BDE8F08F2DE9F04786B006468A46904657
:101100001D4600F03CFC012D406A376B90F80090C2
:1011100002DA01250FF278284AF02000BDF93840A4
:10112000662808BF641C12D0672878D114F1040F18
:101130007BDBBC4279DA96F83800641C000702D4E5
:10114000BD42B8BF2F4624B23F1B48BF002724B280
:10115000F068B169012C23DA4A1C30234354012F73
:1011600003DA96F83800000703D5F06800F802901B
:10117000521CE742B8BF7C4224B260427062E71959
:10118000AF42B261B8BF3D46F068B3692DB2F561B8
:101190002A464146184400F0CDF9781BB062BCE005
:1011A00022469542084416DA2A46414600F0C2F922
:1011B000B1696918601B012FB161706203DA96F89A
:1011C0003800000705D5F06800F80190F069401C70
:1011D000F061B762A1E0414600F0ACF9B0692018B7
:1011E0002D1B012F03DA96F83810090703D5F16893
:1011F00001F80090401CB0612DB2AF42B8BF3D462F
:10120000F068B3692DB22A4608EB0401184400F0D7
:1012100091F9B0692818B061781B70627DE0BAF16D
:10122000610F14D14FF0700A16E0BD4204DA96F84F
:101230003810090758BF2F467F1E48BF0027BAF154
:10124000670F14BF4FF0450A4FF0650A04E0BAF18A
:10125000410F08BF4FF0500AB169F368481CB061F4
:10126000012F18F8012B5A5403DA96F838100907A1
:1012700017D5F168431CB36101F80090012F10DB12
:101280006D1E2DB2AF42B8BF3D46F0682DB22A4662
:101290004146184400F04EF9B0692818B061781B37
:1012A0007062F068B1690144200081F800A004D4A4
:1012B0002B20487001F1020804E02D224A7001F150
:1012C00002086442002502AF08E00A22684600F0E6
:1012D0006FFB019807F8010B6D1C009C21B20129DE
:1012E000F3DA022D06DA4AF02000652804BF302028
:1012F00008F8010B4DB9302008F8010B07E06D1E0E
:1013000002A8405D303008F8010B012DF7DAF068D3
:10131000B1690844A8EB0000F06196F8380000F0CD
:10132000140010280DD17069B1690818716A081885
:10133000F1690818B16A0818716B8842BCBF081AB5
:10134000306206B0BDE8F087F8B504460D46164693
:101350001F46002077B116F8011BA868A047A860B7
:1013600030B1E86A401CE86200207F1EF3D1F2BD74
:101370004FF0FF30F2BD0000000000000000000050
:101380006E616E004E414E00696E6600494E460029
:101390003000F8B504460D4616461F4600F010FB17
:1013A0003B4632462946204601B0BDE8F04000F0F9
:1013B0001EBB00000278C9B28A421AB11CBF10F8E5
:1013C000012FF9E718BF00207047000000F101036A
:1013D000810704D010F8011B89B18107FAD1026896
:1013E000B2F10131914311F0803F04BF50F8042F56
:1013F000F6E710F8011B11B110F8011BFBE7C01A4A
:1014000070470000C9B2830706D0521E22D310F8DD
:10141000013B9942F7D11FE0083A13D302F10402CD
:1014200041EA012141EA014150F8043B121F21BF6A
:101430004B40A3F1013C2CEA030C1CF0803FF3D09D
:10144000C9B2001F083210F8013B521E28BF91EAB2
:10145000030FF8D818BF0120401E704780B500F078
:10146000AFFA012002BD000070B5054605F10F007E
:10147000C408AFF30080E400A54232D2082C04D2A5
:10148000082402E0083000F091F8224802681100B8
:101490000CD1011D0A6802B31368A34238BF111DA5
:1014A000F8D310E01D68A5420DD2191D0B68002B62
:1014B000F8D11268011D00E0191D0B6893420CD091
:1014C0001D68A542F8D361B10D682A68A2F108032E
:1014D000A3420AD26A680A600FE000F0ABFA002863
:1014E000D0D1AFF30080002070BD2B190B60121B10
:1014F0006E685E600B681A602C60096800291DBF69
:101500004A68002A091D00210160AFF3008005F13F
:10151000080070BDC049002070B504460D4616464F
:1015200000F04EFA324629462046BDE8704000F0F1
:1015300051BA000062B38B0708D0521E11F8013B6C
:1015400000F8013B00F024808B07F6D1830740F0C0
:10155000208000BF103A07D330B4B1E83810103AF9
:10156000A0E83810F9D230BC530724BFB1E8081006
:10157000A0E8081044BF51F8043B40F8043BD207F0
:1015800024BF31F8022B20F8022B44BF0B780370E4
:101590007047083A07D3B1E80810083A40F8043B0E
:1015A00040F804CBF7D25307E4E7000000B97047D6
:1015B00038B5A0F108042068082833D310F0070FCD
:1015C00030D1AFF300801848416809B18C4203D292
:1015D0006160446017E019464B680BB1A342FAD32F
:1015E0000B68CD18AC421BD3A54204D12268D21897
:1015F0000A600C4607E04A681AB1236823449A42FD
:101600000ED362604C60616851B12268A3188B42AE
:1016100006D1002303600868801820604868606075
:10162000AFF3008031BD0000C04900201B4213D140
:10163000094236D12AB18446B0FBF2F002FB10C257
:10164000704700F00DBAFCD30022002370470B0056
:101650000200002100207047904271EB030CF6D38A
:1016600070B5B1FA81F4B3FA83F52C1BA340C4F131
:10167000200532FA05F63343A2405FF00046E6400B
:1016800002E05B085FEA3202841A71EB030524BFB3
:10169000204629467641F4D302000B003000002199
:1016A00070BD012ACFD970B5140C20D0B1FA81F4E5
:1016B000B2FA82F5C4F120046419B4F12006D6D33D
:1016C000B2405FF00044F440002502E052085FEAB7
:1016D0003303C61A71EB020E24BF304671466441D3
:1016E0006D41F3D302000B002000290070BD0C46B1
:1016F000B1FBF2F102FB11452D0445EA1045B5FBA3
:10170000F2F402FB145580B240EA0545B5FBF2F055
:1017100002FB105240EA044070BD30B4436801211E
:1017200003F00042C3F31303002B436004BF0368BC
:10173000002B08D10DE00368491EDD0F5B0045EA70
:101740004404446003604468E302F4D5C4F3130323
:10175000436043681A434260084630BC704700004B
:101760004FF4001C1CEB410F94BF1CEB430F09E02E
:1017700041EA030C50EA4C0C52EA0C0C03D2994299
:1017800008BF9042704714BF8B42824270470000EE
:101790004FF4001C1CEB410F94BF1CEB430F09E0FE
:1017A00041EA030C50EA4C0C52EA0C0C03D28B4277
:1017B00008BF8242704714BF9942904270470000B0
:1017C00070B504460D46606840F2FF71C0F30A50E0
:1017D000884207D16068000304BF2068002817D042
:1017E000022070BD20B92046FFF797FF012866DA76
:1017F000012D0FDB40F2FF71091A8D420AD3606898
:1018000000284CBF9FED2F0B9FED300B84ED000B9C
:10181000012070BD4142A942616806DA6FF31E5192
:10182000401941EA0050606040E0401E451963687D
:1018300005F135000122352801F0004162F31F5304
:10184000636003D361600020206070BD002015F14B
:101850001F0F04DA206823600022203562606A428C
:1018600012D02568401E8041C2F12003C043666843
:101870009D4045EAD070256806FA03F3D5402B4316
:1018800023606368D340636062680A43B0F1004F2D
:10189000626003D80DD12078C0070AD52068401CAB
:1018A0002060206828B96068401C60604FF0FF30FD
:1018B00070BD6068884204BF20680028F6D100200F
:1018C00070BD00BF000000000000F0FF000000003D
:1018D0000000F07F41EC100BBDEEC00B10EE100AC3
:1018E000704700EE100AB8EEC00B51EC100B7047B9
:1018F00041EC100B43EC112B30EE410B51EC100B73
:10190000704741EC100B43EC112B20EE010B51EC16
:10191000100B704741EC100B43EC112B80EE010BC8
:1019200051EC100B704741EC100BBCEEC00B10EEED
:10193000100A704700EE100AB8EE400B51EC100B85
:101940007047000080B5134800F08BF80FF24C028E
:101950000FF244010160426241600FF2440282636F
:1019600081600FF24402C160016141618161816265
:10197000C16201634163C2630164416401BD10B58A
:10198000044800F06EF80446206808B9FFF7DAFF53
:10199000204610BD50000020000000002E00000076
:1019A00066616C736500000074727565000000006C
:1019B00091FBF2F303FB1211C0E900317047000004
:1019C00080B5DFF80C0000F04CF8806902BD000023
:1019D000E000002030B430B90FF24800D0E90045F3
:1019E000C2E900451BE00170012030BC704730B4F3
:1019F00031B90FF23800D0E90045C3E900450EE0E7
:101A00001AB930BC6FF00100704708B10A78028043
:101A10000978481E804130BCC043C00F7047002089
:101A200030BC704700000000000000000000000013
:101A3000000000000749086808B100207047064808
:101A4000C008C00008600549C908C900091A01603A
:101A5000704700BFD8490020574100205043002064
:101A60007047704738B5040001D1012032BD00F045
:101A700038F818B92870204600F068FC13E00068B8
:101A8000DFF8B020C16841F00101C16081681140F8
:101A9000062918BFB1F5803F03D0016841F001016C
:101AA0000160002070470220211D6870206800F04E
:101AB000E8F901206870002032BD03D0016841F0D0
:101AC00001010160002010BD38B5040001D10120E2
:101AD00032BD00F006F818B92870204600F0B0FCBE
:101AE000E1E704F13C056878704710B500F00CF8A8
:101AF00000F01AF81CBFDFF84010884200F009F827
:101B000018BFB1F5803FD8E704460122206800F0F5
:101B100052BB03D1416C41F4004141648168DFF85C
:101B200014201140062970472068DFF81010884201
:101B30007047000007000100000401400000014060
:101B400010B5044620680169890715D5C168890761
:101B500012D56FF00201016101212177806910F037
:101B6000030F204602D000F06CFC03E000F06AFC9A
:101B700000F094F80020207720680169490715D506
:101B8000C168490712D56FF0040101610221217774
:101B9000806910F4407F204602D000F052FC03E040
:101BA00000F050FC00F07AF80020207720680169EE
:101BB000090715D5C168090712D56FF00801016141
:101BC00004212177C06910F0030F204602D000F0F5
:101BD00038FC03E000F036FC00F060F800202077CD
:101BE00020680169C90615D5C168C90612D56FF00C
:101BF0001001016108212177C06910F4407F20465F
:101C000002D000F01EFC03E000F01CFC00F046F8DF
:101C10000020207720680169C90708D5C168C90775
:101C200005D56FF001010161204600F00CFC206831
:101C30000169090608D5C168090605D56FF080015C
:101C40000161204600F000FC20680169C90508D543
:101C5000C168090605D56FF480710161204600F066
:101C6000F4FB20680169490608D5C168490605D515
:101C70006FF040010161204600F0E8FB2068016937
:101C800089060AD5C168890607D56FF02001016170
:101C90002046BDE8104000F0DABB10BD204600F041
:101CA000D7BB70B5064606F13C0420780D460128E6
:101CB00001D1022070BD012020700220607052B15D
:101CC000042A18D0082A28D00C2A36D0102A46D048
:101CD000142A54D064E0306800F024F93068816937
:101CE00041F0080100F067F821F0040100F063F80A
:101CF0002A6911430FE0306800F03BF930688169D0
:101D000041F4006100F057F821F4806100F053F8CD
:101D10002A6941EA0221816142E0306800F05CF901
:101D20003068C16941F0080100F041F821F0040178
:101D300000F03DF82A6911430FE0306800F07EF9A9
:101D40003068C16941F4006100F031F821F480612C
:101D500000F02DF82A6941EA0221C16120E03068D3
:101D600000F08FF93068416D41F0080100F01BF878
:101D700021F0040100F017F82A6911430FE03068E0
:101D800000F09DF93068416D41F4006100F00BF8FE
:101D900021F4806100F007F82A6941EA02214165D7
:101DA00000F00DF870BD41653068416D7047C1614C
:101DB0003068C1697047816130688169704701206E
:101DC000607000202070704738B500F04FF801D1E6
:101DD000022032BD0120DFF8343320700220607011
:101DE000286882681A4082600868020018BF1028BC
:101DF0002DD0202818BF302829D0402823D05028A3
:101E000016D0602818D0702803D0B0F5005F07D036
:101E100021E000F022F82868816841F0770105E0B0
:101E200000F01BF82868816841F48041816012E06D
:101E300000F018F850210BE0CA684968286800F0E3
:101E400096F9602104E000F00DF8402100E0014621
:101E5000286800F09EF90FE00000CB684A688968A6
:101E600028689EE1CA68496828686FE1054605F15F
:101E70003C04207801287047012060700020207009
:101E800032BDDFF88C32DFF88C229842F0B504685E
:101E9000DFF8845218BFB0F1804FDFF88062DFF8BE
:101EA000807207D0B84218BFB04203D0A84218BF12
:101EB00090420FD19842D1F804C024F0700418BFAA
:101EC000B0F1804F4CEA040417D0B8421CBFB042B6
:101ED000A84212D090421CBF924DA8420DD0924D04
:101EE000A8421CBF914DA84207D0914DA8421FBFE8
:101EF000904DA842904DA84203D1CD6824F440747F
:101F00002C434D6924F080042C43984204608C6873
:101F1000C4620C68846212BF9042096901630121A6
:101F20004161F0BDF0B500F085F85208520000F0B4
:101F30004CF824F002042B438D682C43754DB042BD
:101F400018BFA84207D1CF6824F008043C43B04230
:101F500024F0040401D0A84205D14D6922F4407256
:101F60002A438D692A434260836149684163046260
:101F7000F0BDF0B5026A714D654E22F0100200F01E
:101F800024F843EA052324F020048D68B04244EA93
:101F90000514604D18BFA84208D124F08004CF6812
:101FA00044EA0714B04224F0400401D0A84206D10C
:101FB0004D698E6922F44062354342EA85024260EF
:101FC0008361496881630462F0BD0262046A426809
:101FD00083692B400D687047F0B500F02BF822F4B0
:101FE00080720262046A4268C3692B400D6824F45F
:101FF00000742B438D6844EA0524464DB04218BF57
:10200000A84208D124F40064CF6844EA0724B0420F
:1020100024F4806401D0A84206D14D698E6922F46F
:102020004052354342EA05124260C3614968C163C8
:102030000462F0BD026A424D354E704730B5026A07
:102040003E4D22F480520262026A4368C4692C4009
:102050000D6844EA052422F400528D6842EA0532F4
:102060002B4DA8421CBF2B4DA84204D123F4804322
:102070004D6943EA85134360C461496801640262A3
:1020800030BD30B5026A2F4D22F4803200F036F8B0
:1020900022F400322C438D6842EA05421C4DA842CE
:1020A0001CBF1C4DA84204D123F480334D6943EA80
:1020B00005234360446549688165026230BD30B5DF
:1020C000026A214D22F4801200F018F844EA052437
:1020D00022F400128D6842EA05520D4DA8421CBF41
:1020E0000C4DA84204D123F480234D6943EA852393
:1020F000436044654968C165026230BD0262026A9C
:102100004368446D2C400D68704700008800FEFF56
:102110000000014000040140000C004000080040A5
:1021200000040040004001400044014000480140DC
:1021300000180040001C004000200040FF8CFFFE03
:102140008CFFFEFF8FFFFEFFFF8FFFFE10B5036ABF
:10215000046A640864000462846924F0F00444EAB8
:102160000212826123F00A021143016210BD10B510
:10217000036A23F0100303628369046A23F4704343
:1021800043EA0232826124F0A00242EA01110162B4
:1021900010BD826822F07002114341F00701816096
:1021A000704710B5846824F47F442143114341EA09
:1021B0000321816010BD10B5036A01F01F010124E5
:1021C0008C4002FA01F1A3430362036A19430162DE
:1021D00010BD000010B59AB00FF254200FC815AC16
:1021E00084E80F0007A80021002200230EC06846E3
:1021F0001C2100F02FF90AA82C2100F02BF9834CA8
:1022000083482060D72060600020A06040F6C310A3
:10221000E060002020616061A0612046FFF722FCA1
:1022200008B100F097F94FF4805015A91590204699
:10223000FFF7CAFD08B100F08DF92046FFF744FC16
:1022400008B100F087F9002007A9079008900990CD
:10225000204600F087F908B100F07CF960200022E8
:102260000090002001906946029003900490059030
:1022700006902046FFF715FD08B100F06BF9042227
:1022800000F02DF808B100F065F9082200F027F8F9
:1022900008B100F05FF90C2200F021F808B100F05D
:1022A00059F900200AA90A900B900C900D900E90FD
:1022B0004FF400500F900020109011904FF00070DC
:1022C0001290002013901490204600F074F908B189
:1022D00000F040F9204600F073F81AB010BD6946CE
:1022E0002046FFF7DEBC10B584B06846002100220E
:1022F0000023484C0EC04848A16020606B206060FD
:1023000040F2E7300FE010B584B0684600210022AB
:102310000023424C0EC04248A160206042F62F20AC
:10232000606042F20F70E0602046A161FFF79AFB07
:1023300008B100F00FF90020694600900290204695
:1023400000F010F908B100F005F91FBD80B5006874
:102350002F4A3449904209D1486840F00100486052
:10236000486800F001000090009801BD2A4A9042A0
:102370000FD10868002240F01000086008680021B2
:1023800000F0100000900098362000F071F936201F
:1023900011E0234A904212D10868002240F0200048
:1023A00008600868002100F02000009000983720A5
:1023B00000F05EF93720BDE8024000F076B901BDBB
:1023C00010B586B0044601A8142100F043F8206837
:1023D0000F49884217D11448016841F0100101608B
:1023E000006801A900F01000009000984FF4D4405C
:1023F000019002200290002003900490012005909B
:102400000A4800F07DF906B010BD000054480020D5
:10241000000001409448002000100040D4480020F3
:1024200000140040403802403038024000100240A2
:10243000000000000000000000000000000000009C
:1024400070477047704770477047704770477047D4
:1024500070470000002200F04BBA000080B500F089
:1024600061FA00F013F800F069FA00F0D3FAFFF710
:10247000B1FEFFF738FFFFF746FF00F0EBFA00F080
:10248000F1FA00F012FB00F007FCFEE700B5B7B070
:1024900006A83421FFF7DEFF01A81421FFF7DAFFB9
:1024A00013A89021FFF7D6FF2748016841F080511B
:1024B0000160006800F08050009000982348016897
:1024C00041F440410160006800F4404000900098F1
:1024D000012006904FF48030079002200C904FF4BA
:1024E00080000D900D200E90D8200F9002201090AB
:1024F000119006A800F002FC00F036FE0F20072124
:10250000019002200290002003904FF4A05004900C
:102510004FF48050059001A800F055FD4FF4E07095
:102520001390002024902590269013A800F058FEC8
:1025300037B000BD01B54FF6FF730122694604486C
:1025400001F0E3F8009802BD4038024000700040FE
:102550001046002070470000D960002180F83C1030
:10256000002010BD70B500F13C021378012B01D1A1
:10257000022070BD01232F4E137002235370036895
:10258000B3421CBF2C4EB3425C689D6803D14E68B9
:1025900024F47004344324F070048E68096825F034
:1025A00080052143596000683543856001205070E3
:1025B0000020107070BD10B590F83C20012A01D1A8
:1025C000022010BD01221B4C80F83C20CA688B6899
:1025D00022F440721A434B6822F480621A430B685B
:1025E00022F400621A430B6922F480521A434B69A9
:1025F00022F400521A438B6A22F480421A4322F4D6
:1026000070228B6942EA03420368A3421CBF0A4C52
:10261000A3420CD122F470024C6A42EA0452CC6903
:10262000096A22F08072224322F000720A435A643F
:1026300093E700000000014000040140090102008E
:1026400002D4294881547047284802F00F021044F0
:1026500000F8041C704726494FF6FF030A68000281
:1026600000F4E0601A401043224A104308607047AB
:1026700038B51F4B1B68C3F30223C3F10704052CB5
:1026800028BF04241D1D072D34BF0023DB1E012598
:1026900005FA04F4641E2140994005FA03F35B1E19
:1026A0001A401143BDE83440C8E7002807D401218F
:1026B00000F01F029140104A400942F82010704774
:1026C000401EB0F1807F10B501D3012010BD0B4C2E
:1026D0000F2160604FF0FF30FFF7B0FF0020A060D7
:1026E00007202060002010BD00E400E018ED00E0AD
:1026F0000CED00E00000FA0500E100E010E000E071
:102700002DE9F84F02460023DFF8B081DFF8B091E1
:10271000DFF8B0A14FF00F0B0C680120984000EAE1
:10272000040E864540F0C0804D689C00022D18BF05
:10273000122D0FD1DD0802EB850C04F01C050BFAFD
:1027400005F7DCF82060BE430F6907FA05F535434D
:10275000CCF8205016680F794FEA430C032505FA90
:102760000CF5ED432E4007F0030707FA0CF73E4344
:1027700016604E68012E18BF022E03D0112E18BF0E
:10278000122E0FD19668CF682E4007FA0CF73E4301
:102790009660566826EA00004E68C6F300169E4012
:1027A00030435060D06828408D6805FA0CF5284306
:1027B000D0604868C00077D5DAF8000004F00C0655
:1027C0000BFA06F440F48040CAF80000DAF8000082
:1027D00000F4804000900098980859F8205025EAAD
:1027E0000404394DAA4208BF00252CD0374DAA4217
:1027F00008BF012527D0364DAA4208BF022522D0A6
:10280000344DAA4208BF03251DD0334DAA4208BF4C
:10281000042518D0314DAA4208BF052513D0304DEC
:10282000AA4208BF06250ED02E4DAA4208BF072592
:1028300009D02D4DAA4208BF082504D02B4DAA422D
:102840000CBF09250A25B5402C4349F82040D8F88B
:1028500000406FEA0E0000EA040C4C68E40348BF35
:102860004EEA0C0CC8F800C0D8F8044000EA040C8A
:102870004C68A40348BF4EEA0C0CC8F804C0D8F852
:10288000084000EA040C4C68E40248BF4EEA0C0C15
:10289000C8F808C0D8F80C4020404C68A40248BFD3
:1028A0004EEA0000C8F80C005B1C102BFFF434AF9C
:1028B000BDE8F18F02B9090481617047003C014015
:1028C0000838014044380240000002400004024041
:1028D00000080240000C02400010024000140240B8
:1028E00000180240001C0240002002400024024068
:1028F00000B500BF130096469446103928BFA0E8E3
:102900000C50FAD85FEA417C28BF0CC048BF40F8A1
:10291000042BC90728BF20F8022B48BF00F8012B61
:1029200000BD000080B50320FFF795FE002001F0F8
:10293000CBF901F0E9F9002002BD000030B587B005
:1029400001A814212A4DFFF785FD2A4801220168BC
:10295000294C41F010010160016801F0100100F004
:102960004DF841F004010160016801F0040100F03C
:1029700045F841F080010160016801F0800100F03C
:102980003DF841F002010160016801F0020100F030
:1029900035F841F008010160016801F0080100F01C
:1029A0002DF841F00101016000683C2100F00100B8
:1029B000009000982846FFF77DFF0022402128461E
:1029C000FFF778FF01224FF4C0412046FFF772FF66
:1029D0007C2000F017F82846FFF792FE4FF4C04025
:1029E00000F010F82046FFF78BFE07B030BD000066
:1029F0000010024030380240000802400091009967
:102A00000168704701A90190012002900020039005
:102A10000490704780B50E480022016841F400110F
:102A200001600068002100F40010009000980C2064
:102A3000FFF71EFE0C20FFF738FE002200211020B9
:102A4000FFF716FE1020BDE80240FFF72EBE00BFC4
:102A50003038024080B58448844900F02EF800B137
:102A60001FE001BD80B58248824901608249416012
:102A70004FF4805181604FF40051C1604FF4806188
:102A800001610C21416100218161C161016202216A
:102A900041624FF48031C16200F0F8FD00B100E006
:102AA00001BDBDE80140FFF755BD80B573487449CD
:102AB00000F003F800B1F4E701BD01604FF46121BB
:102AC000416000218160C16001610C2141610021F0
:102AD0008161C1610162416200F0D8BD2DE9F0471A
:102AE00086B0044601A81421FFF7B4FC22685F4BAE
:102AF000644865499A4217D14A6942F010024A6116
:102B00004A6902F0100200F0A0F8096801F0020121
:102B1000009100994FF4404100F09EF80421059186
:102B200001A9FFF7EDFD85E0524B584D9A424FF455
:102B300080764FF480694FF00068554FDFF854A15C
:102B400032D1086940F400300861086900F40030AF
:102B500000900098086840F008000860086801A923
:102B600000F008000090009860200190022000F022
:102B700064F85046FFF7C4FD05F16000386000209E
:102B8000C7F80480B860F860C7F810907861B86141
:102B9000FE6138627862384601F0CEF808B1FFF77E
:102BA000D9FCE766BC6345E0354B9A4242D10A69DD
:102BB00042F480220A610A6902F4802200F045F89A
:102BC0000A6802F002020092009A0A6842F00802C3
:102BD0000A60096801F00801009100994FF4006152
:102BE00000F03AF80721059101A9FFF789FD0220BD
:102BF000019600F022F801A95046FFF781FD3D66DD
:102C00000020C7F8648007F18405B866F866C7F845
:102C100070907867B867FE67C7F88000286007F192
:102C2000600001F089F808B1FFF794FC07F160003B
:102C3000E0666C6106B0BDE8F0870290002003906A
:102C4000032004900720059070470092009A0A68BC
:102C500042F002020A6070470191022102910021B4
:102C60000391032104917047104600200010014099
:102C70009046002000440040A0860100104700203C
:102C80000048004000040240303802402860024002
:102C900050450020000C024080B501F005FA01F01B
:102CA000CFFC01F0FBFD01F0C5FE1048FEF7E7FE8A
:102CB0000F48BDE80240FEF7E2BE80B500220421C5
:102CC0000C48FFF7F7FD01F0DBFC01F0F9F901F02A
:102CD000C5FE01F001FE08480188491C018001BDC4
:102CE0000548002101804180704700009448002081
:102CF000D448002000100240CE4900202DE9F041C8
:102D0000040082B04FF0000817D02078DFF830546C
:102D1000C00747D5A86800F00C00042807D0A868B1
:102D200000F00C0008280AD16868400207D528681E
:102D3000800337D56068002834D1012041E1606804
:102D4000B0F5803F09D008B928680AE0B0F5A02F97
:102D5000286806D140F480202860286840F480303C
:102D600005E020F480302860286820F48020286066
:102D7000606858B101F00AFF07462868800311D443
:102D800001F004FFC01B6528F7D317E101F0FEFE38
:102D900007462868800305D501F0F8FEC01B6528AA
:102DA000F7D30BE12078800718D5A86810F00C0F36
:102DB00007D0A86800F00C00082825D168684002F8
:102DC00022D42868800702D5E0680128B5D1286898
:102DD000216920F0F80040EAC1002860207800074F
:102DE00043D560690028686F30D040F00100686703
:102DF00001F0CCFE0746686F800736D401F0C6FEAE
:102E0000C01B0328F7D3D9E0E068002828680ED05B
:102E100040F00100286001F0B9FE074628688007ED
:102E2000D5D401F0B3FEC01B0328F7D3C6E0400899
:102E30004000286001F0AAFE074628688007CDD52B
:102E400001F0A4FEC01B0328F7D3B7E04008400000
:102E5000686701F09BFE0746686F800705D501F0A3
:102E600095FEC01B0328F7D3A8E0207840075CD567
:102E7000286CC0000AD4286C4FF0010840F0805044
:102E80002864286C00F0805000900098DFF8BC6245
:102E90003068C0050FD4306840F48070306001F0B5
:102EA00075FE07463068C00505D401F06FFEC01BF3
:102EB0006528F7D382E0A068012808D008B9286FF8
:102EC00009E00528286F06D140F004002867286F24
:102ED00040F0010005E0400840002867286F20F01E
:102EE00004002867A06841F2893658B101F04EFE0F
:102EF0000746286F800711D401F048FEC01BB0427E
:102F0000F7D35BE001F042FE0746286F800705D546
:102F100001F03CFEC01BB042F7D34FE0B8F1000F08
:102F200003D0286C20F080502864A069002847D086
:102F3000A96801F00C0108293FF4FFAE02282868B7
:102F400020F0807028602ED101F020FE074628680E
:102F5000800105D501F01AFEC01B0328F7D32DE030
:102F6000E069216A0843616A40EA8110A16A891E0A
:102F7000C903090C40EA0140E16A40EA0160216BA3
:102F800040EA01706860286840F08070286001F0B5
:102F9000FDFD07462868800112D401F0F7FDC01B33
:102FA0000328F7D30AE001F0F1FD07462868800105
:102FB00006D501F0EBFDC01B0328F7D3032000E08A
:102FC0000020BDE8F6812DE9F0410400884650D08C
:102FD0005F4E306800F00F00404502D200F06EF8FE
:102FE00047D12068564F810712D5400703D5B868EE
:102FF00040F4E050B8602078000703D5B86840F48A
:103000006040B860B868A16820F0F0000843B8607C
:103010002078C00725D56068012802D13968890366
:1030200003E00228396802D1890102D421E089072E
:103030001FD5B968890840EA8100B86001F0A6FD93
:103040000546B868616800F00C00B0EB810F08D04D
:1030500001F09CFD401B41F289318842F1D30320ED
:103060002AE0306800F00F00804504D200F026F816
:1030700001D0012020E02078400705D5B868E1683C
:1030800020F4E0500843B8602078000706D5B868FF
:10309000216920F4604040EAC100B86000F018F8EF
:1030A000BA682C49C2F30312895CC84025490860FC
:1030B000002000F009FE0020BDE8F0813068000922
:1030C00048EA00103060306800F00F00404570475B
:1030D00010B5224C606800F00C00042802D00828CB
:1030E00002D019E01E4810BD2068002300F03F0206
:1030F000206840022068C0F388104CBF184912496C
:10310000A1FB0001FEF792FA2168C1F30141491CBD
:103110004900B0FBF1F010BD0B4810BD09480E4A44
:10312000006812680F49C2F3822206E005480A4A85
:10313000006812680B49C2F34232895CC84070478C
:10314000003802400C0000200024F4000070004011
:10315000003C02403C4C0008083802400438024061
:1031600080BA8C01144E000870B582B000F020F8CF
:1031700040F4803000F030F806466068C00305D4A3
:1031800001F004FD801BA842F7D30DE0206840F455
:10319000003000F021F806466068800306D401F094
:1031A000F5FC801BA842F7D3032076BD002076BD36
:1031B00008480168064C40F2E93541F08051016051
:1031C000006800F080500090009820687047000070
:1031D0000070004040380240206001F0D7BC000081
:1031E0002DE9F04782B0044620780027B846DFF882
:1031F0008C54C0070AD5A86820F40000A860A8680D
:10320000616B0843A860606B00B901272068DFF894
:10321000706400030ED5B068E16B20F440100843E1
:10322000B060E06BB0F5801F08BF012702D008B97D
:103230004FF001082068C0020ED5B068216C20F460
:1032400040000843B060206CB0F5800F08BF012734
:1032500002D008B94FF001082068C10148BF01271A
:1032600080065DD5286CDFF81C9440F080502864FF
:10327000286C00F0805000900098D9F8000040F4CD
:103280008070C9F8000001F081FC8246D9F8000086
:10329000C00506D401F07AFCA0EB0A006528F5D33E
:1032A000BDE1286F10F440701EBF216B01F4407126
:1032B00088421DD0286F296F41F480312967296F1A
:1032C00020F4407021F4803129672867286FC007F7
:1032D0000ED501F05BFC8246286F800708D401F010
:1032E00055FCA0EB0A0041F289318842F4D396E103
:1032F000206B00F44071B1F5407F07D1A968DFF879
:103300008823104021F4F811084302E0A86820F453
:10331000F810A860286F216BC1F30B0108432867E0
:103320002078C00607D5B06820F08070B060B06823
:10333000A16B0843B0602068400405D5F068616E59
:1033400020F440300843F0602068000405D5F068A0
:10335000A16E20F440200843F0602068C00305D52A
:10336000F068E16E20F440100843F06020688003AC
:1033700005D5F068216F20F440000843F060207804
:10338000400605D5F068616C800841EA8000F06075
:103390002078000605D5F068A16C20F00C000843E9
:1033A000F0602068C00505D5F068E16C20F03000C1
:1033B0000843F0602068800505D5F068216D20F095
:1033C000C0000843F0602068400505D5F068616DD5
:1033D00020F440700843F0602068000505D5F068CF
:1033E000A16D20F440600843F0602068C00405D55A
:1033F000F068E16D20F440500843F06020688004DC
:1034000005D5F068216E20F440400843F060206844
:10341000400205D5F068A16F20F080600843F0609D
:10342000206880020BD5F068E16F20F0006008434F
:10343000F060E06FB0F1006F08BF4FF00108206846
:10344000010748BF4FF00108400305D5F068616FE0
:1034500020F040700843F0602068000206D5F06854
:10346000D4F8801020F080500843F060216804F107
:103470008400490105D5F168026821F0005111432B
:10348000F1602168090105D5B168426821F0007139
:103490001143B1602168C90005D5B168806821F089
:1034A00080610843B0601FB92068B0F1007F58D137
:1034B00000F0D2F807462868000105D501F066FB48
:1034C000C01B6528F7D3AAE02078C0070AD5606B37
:1034D00040B900F0AFF801F070610843A16840EA1C
:1034E000017030602068010303D5E16BB1F5801FE6
:1034F00005D0C00210D5206CB0F5800F0CD100F0C3
:1035000099F8E26800F090F83060B068616A4009AC
:10351000491E41EA4010B0602068C00106D53068FD
:1035200031682369626800F08DF83060206880019E
:1035300008D521696068090441EA8010E16800F05B
:1035400091F83060286840F0806000F088F8074605
:103550002868000105D401F019FBC01B6528F7D3CA
:103560005DE0B8F1000F5CD0286820F0805000F0DA
:1035700076F807462868800005D501F007FBC01BD8
:103580006528F7D34BE02068010301D5E16B19B141
:10359000C00214D5206C90B970687168626900F43B
:1035A000403040EA8210A26900F03EF87060B068D6
:1035B000A16A20F4F850491E40EA0120B06020685A
:1035C00080020AD5E06FB0F1006F06D170687168B3
:1035D000236A626900F036F870602078000713D51E
:1035E00070687168626901F4403141EA821100F04B
:1035F00070600843E16940EA01707060B068E16A98
:1036000020F440300843B06000F032F804462868E7
:10361000800006D401F0BAFA001B6528F7D3032016
:1036200000E00020BDE8F68701F0E04140EA0260DA
:103630000843704730683168626800F4403040EAFF
:10364000821070471B0443EA821200F0706001F0A0
:10365000E041104308437047286820F080602860EC
:1036600001F094BA40EA0160A16840EA0170704735
:10367000286840F08050286001F088BA0038024085
:103680008438024000700040FFFCFF0F38B5040092
:1036900009D004F17005686808B900F00FF800F06F
:1036A00011F8012801D1012032BD606A08B100F093
:1036B00022F800F018F821F02A010DE028702046C9
:1036C000FFF70CBA242068602068016849084900A7
:1036D0000160204600F0BEB8816000F00FF8BDE840
:1036E000324000F040BA2068416821F490414160C6
:1036F000206881687047204600F0D2B920680168D0
:1037000041F001010160204670472DE9F047044671
:1037100082B004F1700689467068174698462028E2
:1037200048D1B9F1000F14BF002F012043D03078E9
:1037300001283FD0012004F1500530700020F060D6
:103740002120706001F022FA2F8082466F80A068ED
:10375000B0F5805F04BF206900281ABF4F464FF0C4
:103760000009002703E081626888401E688068883D
:10377000CDF80080534600280FD00022802120463B
:1037800000F010FA78B9002F206806BF39F8021B44
:10379000C1F3080117F8011BE5E70022402120468C
:1037A00000F000FA08B1032005E02020706000203E
:1037B000307000E00220BDE8F68738B5044604F119
:1037C0005805286A20283FD159B3100029D0287EF7
:1037D000012839D001202876002061652A8068629E
:1037E000222028626869F0B10FF24D411346C1638F
:1037F00069690FF27D40086469690FF27D40C86411
:103800006969002008652068626D00F1240168691B
:1038100000F005FB38B110206862002028762020D7
:10382000E861012032BD002028762068016841F45B
:10383000807101602068816841F001018160206829
:10384000816841F0400101E0022032BD816000202A
:1038500032BD0000884B70B5044600202168002569
:103860000A681A40A3681A4323691A4363691A4312
:10387000E3691A430A604A68E36822F440521A4333
:103880004A608A68A36922F430621A43236A1A43A1
:103890007A4B99428A607A4A21D1116801F003017A
:1038A000032903D8DFE801F0693829471021E269CC
:1038B0004FF6F076B2F5004F40F0A98061B10129D2
:1038C00000F07F80022900F07F80042900F08380CF
:1038D000082900F089808FE0FFF720FC7DE0694B2C
:1038E00099420CD1116811F00C0168D0042913D051
:1038F000082902D00C291ED0D8E70221D7E7624B55
:1039000099420BD1116811F0300158D0102903D021
:103910002029F2D03029EEE70421C8E75B4B994219
:103920000BD1116811F0C00149D04029F4D0802991
:10393000E3D0C029BAD10821B9E7554B99420CD13F
:10394000116811F440713AD0B1F5807FE4D0B1F53F
:10395000007FD2D0B1F5407FCDE74E4B99420ED1DA
:10396000116811F4406108D0B1F5806FD4D0B1F581
:10397000006FC2D0B1F5406FBDE7012197E7464B1C
:1039800099420CD1116811F4405118D0B1F5805F03
:10399000C2D0B1F5005FB0D0B1F5405FABE73F4BAF
:1039A000994283D1116811F4404108D0B1F5804F9C
:1039B000B2D0B1F5004FA0D0B1F5404F9BE7002148
:1039C00075E7FFF7B3FB08E06068410801F1F471A7
:1039D00001F590410CE0FFF77BFB61684A0802EBC0
:1039E0004000B0FBF1F005E06068410801F580316E
:1039F000B1FBF0F080B200E00125A0F11001B1426E
:103A000034D206EA0001C0F3420008432BE041B182
:103A1000012909D002290AD004290FD0082915D07C
:103A20001CE0FFF77BFB0BE0FFF780FB08E0606822
:103A3000410801F5740101F510510BE0FFF748FB57
:103A4000616800EB5100B0FBF1F005E060684108EF
:103A500001F50041B1FBF0F080B200E00125A0F1DA
:103A60001001B14202D22168C86000E001250020A7
:103A700020666066284670BDF369FFEF00100140C4
:103A8000903802400044004000480040004C004094
:103A9000005000400014014000780040007C0040CD
:103AA00090F82410C90706D501684A68836A22F491
:103AB00000321A434A6090F82410890706D501683D
:103AC0004A68C36A22F480321A434A6090F824108C
:103AD000490706D501684A68036B22F480221A431D
:103AE0004A6090F82410090706D501684A68436BBC
:103AF00022F400421A434A6090F82410C90606D501
:103B000001688A68836B22F480521A438A6090F8B5
:103B10002410890606D501688A68C36B22F4005216
:103B20001A438A6090F82410490610D501684A6843
:103B3000036C22F480121A434A60026CB2F5801FB3
:103B400005D14A68436C22F4C0021A434A6090F8D7
:103B50002410090606D501684A68806C22F4002208
:103B600010434860704738B5054605F170040020E1
:103B7000E06001F00BF82968096809070CD56FF0BF
:103B80007E410346009100224FF40011284600F0C8
:103B900009F808B1032032BD20206060A060002039
:103BA000207032BD2DE9F04104460D4690461F4677
:103BB000069E2068C0692840A8420CBF0120002052
:103BC000404518D116F1010FF3D000F0DFFFC01B04
:103BD000864201D3002EECD12068016821F4D07117
:103BE00000F00CF804F17000202141608160002198
:103BF0000170032000E00020BDE8F0810160206832
:103C00008168490849008160704701680A6822F0AC
:103C1000C0020A6020214167704701680A6822F4E7
:103C200090720A6001688A68520852008A602021F6
:103C30008167002101667047816BC069B0F5807FA4
:103C400013D00020A1F85A000868026822F480729C
:103C500002600868826852085200826008688268C0
:103C600022F04002826020208867084600F094BF5E
:103C7000806B00F092BF0000F8B5846B04F174050E
:103C800028686E68216804F152078968090606D51C
:103C9000212804D1002038802046FFF7B6FF206895
:103CA0008068400606D5222E04D1002038812046A7
:103CB000FFF7B3FFA86840F01000A8602046BDE8F9
:103CC000F24000F06BBF000038B50D4D0446297876
:103CD0004FF47A70B0FBF1F00A490968B1FBF0F0DB
:103CE000FEF7EEFC50B9102C08D2002221464FF00E
:103CF000FF30FEF7BDFCAC60002032BD012032BDBC
:103D0000000000200C00002081B00A48016841F04A
:103D100080510160016801F0805100910099416873
:103D200041F480414160406800F480400090009878
:103D300001B070474038024070B5044600F026FFDD
:103D400006460CB9012070BD04F13405002028702E
:103D50000220687000F09BF820680168C90708D548
:103D600000F014FF801B0628F6D3202028620320D1
:103D700053E00168DFF8B822114062681143A2687D
:103D80001143E26811432269114362691143A26938
:103D90001143E2691143226A1143626A042A03D182
:103DA000E26A236B1A431143016020684169626A29
:103DB000C90842EAC101042A0AD1A26AE36A11438E
:103DC00033B1A66996B9002A18BF022A20D017D3AA
:103DD0004161204600F050F9AA6A3F21914081607C
:103DE0000020286201206870002070BDB6F5005FD9
:103DF0000AD1032AECD8DFE802F00D0B0D03E7E748
:103E0000B3F1C07FE4D105E0022A03D9D21EDFD18D
:103E1000DA01DDD5402028620120687070BDF8B558
:103E20000024054605F134063078776A012801D16F
:103E30000220F2BD01203070707801281DD10220CF
:103E400070702846346200F007F9B16A3F2088405C
:103E5000B8602868016841F016010160286841696E
:103E600041F080014161F06820B12868016841F0AB
:103E70000801016000F005F801E0347002242046DA
:103E8000F2BD2868016841F00101016070472068B7
:103E9000016849084900016070472DE9F041044676
:103EA00082B0002004F134060090776A61484FF434
:103EB000165100683D68B0FBF1F8B16A082000FABD
:103EC00001F10D420ED021680A6852070AD50A682E
:103ED00022F004020A60B16A8840B860306A40F09B
:103EE00001003062B06A25FA00F1C9070BD52168DC
:103EF0004969090607D5012101FA00F0B860306A66
:103F000040F002003062B16A04208840054208D0C7
:103F100021680968890704D5B860306A40F0040058
:103F20003062B16A1020884005421DD021680968BE
:103F3000090719D5B86020680168490308D50068E9
:103F400000030CD5716908000ED0204688470BE0AD
:103F50000168C90503D4016821F008010160F16816
:103F600008001CBF20468847B16A202088400542CF
:103F70003DD021680968C90639D5B86020687178D4
:103F80000529016818D100F057F8F068002804BF2F
:103F90007069002801D000F058F8B16A3F208840CD
:103FA000B8600020307001207070F16908003BD0CB
:103FB0002046BDE8FC410847490308D500680003D6
:103FC00010D43169080012D0204688470FE00168FC
:103FD000C90507D4016821F010010160002030708C
:103FE00001207070B16808001CBF20468847306A05
:103FF000D0B1306AC00710D505207070FFF747FFB9
:104000000098401C8045009003D320680068C007DA
:10401000F6D40020307001207070B169080003D020
:104020002046BDE8FC410847BDE8F38100000000E0
:104030003F8010E00C00002021F016010160206894
:10404000416921F08001416170472068016821F0D9
:10405000080101607047000030B50468256825F448
:104060008025256063608068402802D1A260E160FD
:1040700030BDA160E26030BD0168182301F0FF028D
:10408000890A103A8902B2FBF3F2042A0FF21003F4
:104090009B5C28BF091DC365816508467047000009
:1040A0000006101600061016DFF8800500210180BA
:1040B0004FF48072DFF87815DFF87805FFF77DBBE5
:1040C00000BF00BF2DE9F84FDFF86C05DFF86C1575
:1040D0002DED068B006882B09FED0C8ADFF85065ED
:1040E000DFED0B8A40689FED0B9ADFED0B9AB1EE86
:1040F00004AAC0F580700880DFF8300500F1700177
:1041000000F1280A0191851C13E200BF0000C8C21B
:104110000000C8420000B0C36EDB36C28B1C00F04A
:1041200045FA2880C81C00F03AFAF35C580100EB0D
:10413000D707081DC7F30A076F804F1DFC1107EB57
:1041400014642412A7EB042400F022FA345D305CDE
:10415000800000EB9310670800EB8420C0F30A0096
:10416000A880881D00F01BFAC81DF35C07EBC3177D
:10417000C7F30A07EF80C71100EB17673F12A0EBE8
:104180000727F75D380100EB131301F10800C3F3B3
:104190000A032B8101F10903DC1103EB14642412DF
:1041A000A3EB0423F45CC31100EB13631B12A0EB1D
:1041B0000320305C400000EBD710A70800EB442040
:1041C000C0F30A00688101F10A0000F0E8F901F18A
:1041D0000B00F35C07EB8317C7F30A07AF8100F00E
:1041E000D7F9305CC00000EB531001F10D03E881FA
:1041F00001F10C0000F0DAF9288201F10E0000F064
:10420000CEF901F110004FEAE01E00EB1E6EF45CE7
:10421000FB0803EB441301F10F074FEA2E2EA0EB2E
:104220000E20C3F30A036B8216F800E0F81107EBC7
:104230001060F3EE090A9FEDD42B0012A7EB0027C4
:1042400001F11100F75DBF0007EB9417C41100EBFB
:10425000146407EB8E272412A0EB0420C7F30A078F
:10426000AF82345C4FEA5E0000EBC410C0F30A0C6E
:1042700001F112004FEAE01EA5F816C000EB1E6E19
:104280004FEA2E2EA0EB0E2016F80090200900EB2E
:10429000091001F11304C0F30A0E01F114004FEAF2
:1042A000E018A5F818E000EB18684FEA2828A0EB02
:1042B000082016F80080E01104EB10600012A4EB57
:1042C0000024345D640004EBD91001F1150400EB07
:1042D0004820C0F30A09E01104EB1060A5F81A9019
:1042E0000012A4EB0020305C840104EB9804C4F3BA
:1042F0000A0801F116044FEAE41BA5F81C8004EB40
:104300001B6B4FEA2B2BA4EB0B24345DE40004EB76
:104310005010E88301F11700C11100EB116109127F
:10432000A0EB01214FF4A860715C01F0010410FBC7
:1043300004F404F5B0742C84C1F3400410FB04F4BD
:1043400004F5B0746C842C8800EE104AB8EE400A74
:1043500020EE200ADFEDB30A80EE200AB7EEC00A95
:1043600030EE020BB7EEC00B8AED000A6C88DFED71
:10437000AD0A00EE104AB8EE400A20EE0A0A80EEBE
:10438000200A30EE290AB1EE400A8AED010AAC8813
:10439000DFEDA50A00EE104AB8EE400A30EE090A39
:1043A00080EE200AF0EE480A40EE280AB1EE600ADC
:1043B0008AED020AEC88DFED9B0A00EE104AB8EEA7
:1043C000400A20EE0A0A80EE200A30EE290A8AED21
:1043D000030A2C89DFED940A00EE104AB8EE400A79
:1043E00030EE090A80EE200AF0EE480A40EE280A74
:1043F000C1F3C000CAED040A6C89DFED8B0A00EE40
:10440000104AB8EE400A30EE090A80EE200AF0EEBB
:10441000480A40EE280ACAED050AAC89DFED820A97
:1044200000EE104AB8EE400A30EE090A80EE200A8B
:10443000F0EE480A40EE280ACAED060AEC89DFEDE4
:104440007A0A00EE104AB8EE400A30EE090A80EE11
:10445000200AF0EE480A40EE280ACAED070A2C8A24
:10446000DFED710A00EE104AB8EE400A30EE090A9C
:1044700080EE200AF0EE480A40EE280A00EE103ADC
:10448000EB8BCAED080AB8EE400A30EE090ADFED00
:10449000660A80EE200AF0EE480A40EE280A00EE96
:1044A000107A019FCAED090AB8EE400A30EE090AF7
:1044B000DFED5D0A80EE200AF0EE480A40EE280AA1
:1044C00000EE10CACAED0A0AB8EE400A30EE090A38
:1044D000DFED550A80EE200AF0EE480A40EE280A89
:1044E00000EE10EACAED0B0A00F074F800EE109A24
:1044F000CAED0C0A00F06EF800EE108ACAED0D0A43
:1045000000F076F82B8CCAED0E0A00F071F86B8C77
:10451000CAED0F0A00F06CF8C1F38003CAED100A6F
:1045200000F058F8CAED110A3B70019948704348F1
:10453000428000F06CF8192821DB40484188725C09
:10454000481C0F2A12D101F11802D31102EB136398
:1045500000921B12A2EB0322B35C042B18BF142B96
:1045600002D0242B18BF342B3FF4D8ADC11100EB7F
:1045700011610912A0EB012030494880D9E702B04F
:10458000BDEC068BBDE8F18F0AD7A3703D926CC0DD
:10459000C71100EB17673F12A0EB07207047C3114C
:1045A00000EB13631B12A0EB03237047DF1103EB37
:1045B00017673F12A3EB0727C31100EB13631B120E
:1045C000A0EB0320F75D305C00EB0720C0F30A008E
:1045D00070470000B8EE400A30EE090ADFED120A1B
:1045E00080EE200AF0EE480A40EE280A70470000EC
:1045F000B8EE400A30EE090ADFED0B0A80EE200A21
:10460000F0EE480A40EE280A00EE103A70470B48D8
:1046100041880088884238BF00F58070401A80B217
:10462000704700000000E04200002844904700204E
:10463000504300209046002050450020D2490020E1
:1046400080B54FF480726E496E48FFF7B6F80020CF
:104650006D49002241F820200A54401C3428F9DB1F
:1046600001BD68480168CA69120708D50A6A42F0A4
:1046700008020A624FF480726149FFF79EB87047E2
:104680002DE9F843FFF7EDFF6048614C0068DFF863
:1046900070814068C0F58070608006E0F01106EB24
:1046A00010600012A6EB0020A08000F039F858B38B
:1046B00000F036F807462770A58818F805006E1C2C
:1046C000FA28EBD1F01106EB10600012A6EB0029DE
:1046D00018F80900FF28E1D100F033F888B900F09C
:1046E00045F8012F08D105F13900C11100EB116126
:1046F0000912A0EB0120D7E7022FD6D105F14B001C
:10470000F3E7A4F80490D0E7BDE8F183404881883E
:104710004088884238BF00F58070401A80B27047E8
:1047200080B5FFF7F3FF4B28A8BF022005DAFFF79B
:10473000EDFF3928ACBF012000203549087008780A
:1047400002BD30B5002001212D4A314B9C880C1947
:10475000E51104EB1565491C2D12A4EB0524145D2D
:104760000019392900F0FF00F0DB30BD70B5284991
:10477000254A88880C782749214B012C10D100F05C
:104780005BF800F049F81069086050694860D0682B
:104790008860106A8861D069C8619069086270BDDC
:1047A000022C2BD100F048F8002425183B3500F0EE
:1047B0003AF8082C16445D5D86F82F50F5DB00248E
:1047C0002518463500F02FF8042C16445D5D86F858
:1047D0003350F5DB00F020F8106A0860D0694860BB
:1047E00090698860506988611069C861D068086202
:1047F000D06A4862906A8862106BC86270BD00001F
:10480000504400201047002014490020B0450020EB
:10481000C8490020484900209068C8605068086175
:10482000106848617047EE1105EB16663612A5EB6D
:1048300006256642641C704700242518ED1DEE1104
:1048400005EB16663612A5EB06256642641C0C2C99
:1048500016445D5DF572F0DB002425181635EE1167
:1048600005EB16663612A5EB06256642641C0C2C79
:1048700016445D5DF575F0DB002425182535EE1135
:1048800005EB16663612A5EB06256642641C0C2C59
:1048900016445D5D86F82350EFDB704710B55C4C25
:1048A000002100F016F8042100F013F8082100F0B0
:1048B00010F80C2100F00DF820684FF47A71416374
:1048C0008163C16301644FF4FA70BDE8104000F0E9
:1048D00067B92046FDF709B94E489FED4A1A00B561
:1048E00090ED0C0A85B0B4EE410A01A9F1EE10FA80
:1048F000DFED450A06D410F8702F012A04BF407876
:10490000012808D1CDED010AC1ED010AC1ED020A6D
:10491000C1ED030A34E0BDEEC00A10EE100A00EB50
:10492000800000F2DC5000EE100A3B48B8EEC00AEE
:1049300090ED002AD0ED011AF1EE422A90ED021A14
:1049400072EEE12A72EEC12A72EE802ACDED012AC2
:1049500072EE612A72EE812A72EE802AC1ED012A7E
:1049600072EE212A71EEC21A72EEC12A31EE811A5C
:1049700072EE802A31EE000AC1ED022A81ED030AAF
:10498000002001EB800292ED000AB4EE600AF1EE25
:1049900010FA48BFC2ED000A09D49FED1C1AB4EE0C
:1049A000410AF1EE10FAA4BF1C4A41F82020401C35
:1049B0000428E6DB9DED010A1948BCEEC00A80ED33
:1049C000000AD1ED010AFCEEE00AC0ED010A91ED0A
:1049D000021ABCEEC11A80ED021AD1ED031AFCEEE8
:1049E000E11AC0ED031A0FF23C00CDED001A11EEF2
:1049F000103A10EE902A10EE101A00F0E5F805B00B
:104A000000BD00000000C4C200007A440100FA4466
:104A100054480020904700209C4900200000FA44A0
:104A20003400014025642025642025642025640A83
:104A30000D0000004D48B7EE000A0021F2EE040A16
:104A400080ED000A4160C0ED020A016180ED030AB9
:104A5000C0ED050A80ED060A7047000038B54148F0
:104A6000414D95ED0D0A4149D0ED030A404A30EE23
:104A7000601A404C95ED0B0AD0ED040A70EE601AF6
:104A800091ED000A20EE012A82ED032AD4ED002ADE
:104A90009FED390BB7EEE23AB7EEC14A04EE003BA8
:104AA000B7EEC31B84ED001AD1ED012A22EE811A64
:104AB00082ED041AD0ED002A91ED023A32EE011A8D
:104AC00062EEC32A31EE221AC2ED052A82ED001AE7
:104AD00091ED031A21EE211A82ED031A94ED012AB9
:104AE000B7EEC22AB7EEE13A03EE002BB7EEC20BE7
:104AF00084ED010AD1ED040A20EE800A82ED040A59
:104B0000D0ED010AD1ED051A31EE000A60EEE10A9E
:104B100030EE200AC2ED050A82ED010A95ED0A0A7F
:104B2000D0ED020A0FF25C0030EE600AD1ED060A09
:104B300020EE200A82ED030A82ED020AB7EEC00AD7
:104B400053EC102B00F040F895ED0C0ADFED0C0A49
:104B5000B4EE600AF1EE10FA02D500202060606029
:104B600031BD0000484900209047002078490020CE
:104B70009C490020B4490020FCA9F1D24D62503F6D
:104B80000000BEC2252E34660D0A000001484068B0
:104B9000704700BF0000002070477047704700005A
:104BA00038B50446FFF7F2FF14F1010F054602D0B5
:104BB000044800782418FFF7E9FF401BA042FAD30D
:104BC00031BD00BF000000200EB400B582B003A9C3
:104BD000009102466B460121034878440A30FBF7F6
:104BE0000BFB06BC5DF810FBED0100000E480F4A00
:104BF000016841F4700101600D48016841F0010154
:104C00000160002181600168114001600949416033
:104C1000016821F4802101600021C1604FF0006033
:104C2000054908607047000088ED00E0FFFFF6FED0
:104C3000003802401030002408ED00E000000000C1
:104C40000000000001020304060708097047FEE7A0
:104C5000FEE7FEE7FEE770477047704700F01EB8BA
:104C60000A48FFF71AB90A48FFF717B980B509488B
:104C7000FCF766FFBDE80140FEF71FB880B50648A7
:104C8000FCF75EFFBDE80140FEF72AB8B045002002
:104C90005045002094480020D44800200248416834
:104CA00002788918416070470000002019E050F830
:104CB000041BCB0744BFA9F101035918121F00239D
:104CC000042A41F8043BF9D25FEA827C0B4604D502
:104CD0004FF0000CA1F800C09B1CD10744BF00217D
:104CE000197050F8042B002AE1D1704730B50168E3
:104CF00042688468014401EB5203D20748BF4C4428
:104D0000994201D10C3030BD11F9012B11F8015B32
:104D1000002A04F8015B02D5521CF9D1F0E7521EBB
:104D2000F4D5EDE710B5074979441831064C7C44B9
:104D3000163404E00A68081D114488470146A14260
:104D4000F8D110BD2C000000480000004EF688513C
:104D5000CEF20001086840F470000860BFF34F8F86
:104D6000BFF36F8F4FF00070E1EE100A7047000044
:104D70003DFFFFFF8C0600005043002000000000B4
:104D80006DFFFFFF380200007000000000000020EF
:104D900000F00BF8002801D0FFF7C4FF0020AFF3AC
:104DA0000080FDF75BFB00F002F80120704700F087
:104DB00001B800000746384600F002F8FBE70000A3
:104DC00080B5AFF30080024A11001820ABBEFBE7AC
:104DD0002600020038B504460D46284600F006F8C5
:104DE000A84218BF0024204632BD00000149FDF74B
:104DF000A1BB00BF100000200148804701480047C8
:104E0000ED4B0008094E0008AFF30080FFF79EFF4E
:104E1000FFF7BEFF0000000001020304FFF7FEBF22
:104E2000FFF7FEBFFFF7FEBFFFF7FEBFFFF7FEBFB6
:104E3000FFF7FEBFFFF7FEBFFFF7FEBFFFF7FEBFA6
:104E4000FFF7FEBFFFF7FEBFFFF7FEBFFFF7FEBF96
:104E5000FFF7FEBFFFF7FEBFFFF7FEBFFFF7FEBF86
:104E6000FFF7FEBFFFF7FEBFFFF7FEBFFFF7FEBF76
:104E7000FFF7FEBFFFF7FEBFFFF7FEBFFFF7FEBF66
:104E8000FFF7FEBFFFF7FEBFFFF7FEBFFFF7FEBF56
:104E9000FFF7FEBFFFF7FEBFFFF7FEBFFFF7FEBF46
:104EA000FFF7FEBFFFF7FEBFFFF7FEBFFFF7FEBF36
:104EB000FFF7FEBFFFF7FEBFFFF7FEBFFFF7FEBF26
:104EC000FFF7FEBFFFF7FEBFFFF7FEBFFFF7FEBF16
:104ED000FFF7FEBFFFF7FEBFFFF7FEBFFFF7FEBF06
:104EE000FFF7FEBFFFF7FEBFFFF7FEBFFFF7FEBFF6
:104EF000FFF7FEBFFFF7FEBFFFF7FEBFFFF7FEBFE6
:104F0000FFF7FEBFFFF7FEBFFFF7FEBFFFF7FEBFD5
:104F1000FFF7FEBFFFF7FEBFFFF7FEBFFFF7FEBFC5
:104F2000FFF7FEBFFFF7FEBFFFF7FEBFFFF7FEBFB5
:104F3000FFF7FEBFFFF7FEBFFFF7FEBFFFF7FEBFA5
:104F4000FFF7FEBFFFF7FEBFFFF7FEBFFFF7FEBF95
:104F5000FFF7FEBFFFF7FEBFFFF7FEBFFFF7FEBF85
:104F6000FFF7FEBFFFF7FEBFFFF7FEBFFFF7FEBF75
:104F7000FFF7FEBFFFF7FEBFFFF7FEBFFFF7FEBF65
:104F8000FFF7FEBFFFF7FEBFFFF7FEBFFFF7FEBF55
:104F9000FFF7FEBFFFF7FEBFFFF7FEBFFFF7FEBF45
:104FA000FFF7FEBFFFF7FEBFFFF7FEBFFFF7FEBF35
:104FB000FFF7FEBFFFF7FEBFFFF7FEBF0001F900DE
:104FC0000010FC002224F400020401010448002027
:104FD00054480020044800200448002004480020D1
:104FE0004D00002034000020C400F8FFDC00FAFF70
:044FF0008100D1006B
:0400000508004E0998
:00000001FF
